{
  "contractName": "CombinedSwapAddRemoveLiquidity",
  "abi": [
    {
      "inputs": [
        {
          "internalType": "contract IDipoleFactory",
          "name": "factory_",
          "type": "address"
        },
        {
          "internalType": "contract IDipoleRouter01",
          "name": "router_",
          "type": "address"
        },
        {
          "internalType": "contract IWETH",
          "name": "weth_",
          "type": "address"
        }
      ],
      "stateMutability": "nonpayable",
      "type": "constructor"
    },
    {
      "inputs": [],
      "name": "factory",
      "outputs": [
        {
          "internalType": "contract IDipoleFactory",
          "name": "",
          "type": "address"
        }
      ],
      "stateMutability": "view",
      "type": "function"
    },
    {
      "inputs": [],
      "name": "router",
      "outputs": [
        {
          "internalType": "contract IDipoleRouter01",
          "name": "",
          "type": "address"
        }
      ],
      "stateMutability": "view",
      "type": "function"
    },
    {
      "inputs": [],
      "name": "weth",
      "outputs": [
        {
          "internalType": "contract IWETH",
          "name": "",
          "type": "address"
        }
      ],
      "stateMutability": "view",
      "type": "function"
    },
    {
      "stateMutability": "payable",
      "type": "receive"
    },
    {
      "inputs": [
        {
          "internalType": "uint256",
          "name": "reserveIn",
          "type": "uint256"
        },
        {
          "internalType": "uint256",
          "name": "userIn",
          "type": "uint256"
        }
      ],
      "name": "calculateSwapInAmount",
      "outputs": [
        {
          "internalType": "uint256",
          "name": "",
          "type": "uint256"
        }
      ],
      "stateMutability": "pure",
      "type": "function"
    },
    {
      "inputs": [
        {
          "internalType": "address",
          "name": "tokenIn",
          "type": "address"
        },
        {
          "internalType": "address",
          "name": "otherToken",
          "type": "address"
        },
        {
          "internalType": "uint256",
          "name": "amountIn",
          "type": "uint256"
        },
        {
          "internalType": "uint256",
          "name": "minOtherTokenIn",
          "type": "uint256"
        },
        {
          "internalType": "address",
          "name": "to",
          "type": "address"
        },
        {
          "internalType": "uint256",
          "name": "deadline",
          "type": "uint256"
        }
      ],
      "name": "swapExactTokensAndAddLiquidity",
      "outputs": [
        {
          "internalType": "uint256",
          "name": "amountTokenIn",
          "type": "uint256"
        },
        {
          "internalType": "uint256",
          "name": "amountTokenOther",
          "type": "uint256"
        },
        {
          "internalType": "uint256",
          "name": "liquidity",
          "type": "uint256"
        }
      ],
      "stateMutability": "nonpayable",
      "type": "function"
    },
    {
      "inputs": [
        {
          "internalType": "address",
          "name": "token",
          "type": "address"
        },
        {
          "internalType": "uint256",
          "name": "minTokenIn",
          "type": "uint256"
        },
        {
          "internalType": "address",
          "name": "to",
          "type": "address"
        },
        {
          "internalType": "uint256",
          "name": "deadline",
          "type": "uint256"
        }
      ],
      "name": "swapExactETHAndAddLiquidity",
      "outputs": [
        {
          "internalType": "uint256",
          "name": "amountETHIn",
          "type": "uint256"
        },
        {
          "internalType": "uint256",
          "name": "amountTokenIn",
          "type": "uint256"
        },
        {
          "internalType": "uint256",
          "name": "liquidity",
          "type": "uint256"
        }
      ],
      "stateMutability": "payable",
      "type": "function"
    },
    {
      "inputs": [
        {
          "internalType": "address",
          "name": "undesiredToken",
          "type": "address"
        },
        {
          "internalType": "address",
          "name": "desiredToken",
          "type": "address"
        },
        {
          "internalType": "uint256",
          "name": "liquidity",
          "type": "uint256"
        },
        {
          "internalType": "uint256",
          "name": "minDesiredTokenOut",
          "type": "uint256"
        },
        {
          "internalType": "address",
          "name": "to",
          "type": "address"
        },
        {
          "internalType": "uint256",
          "name": "deadline",
          "type": "uint256"
        }
      ],
      "name": "removeLiquidityAndSwapToToken",
      "outputs": [
        {
          "internalType": "uint256",
          "name": "amountDesiredTokenOut",
          "type": "uint256"
        }
      ],
      "stateMutability": "nonpayable",
      "type": "function"
    },
    {
      "inputs": [
        {
          "internalType": "address",
          "name": "token",
          "type": "address"
        },
        {
          "internalType": "uint256",
          "name": "liquidity",
          "type": "uint256"
        },
        {
          "internalType": "uint256",
          "name": "minDesiredETH",
          "type": "uint256"
        },
        {
          "internalType": "address",
          "name": "to",
          "type": "address"
        },
        {
          "internalType": "uint256",
          "name": "deadline",
          "type": "uint256"
        }
      ],
      "name": "removeLiquidityAndSwapToETH",
      "outputs": [
        {
          "internalType": "uint256",
          "name": "amountETHOut",
          "type": "uint256"
        }
      ],
      "stateMutability": "nonpayable",
      "type": "function"
    }
  ],
  "bytecode": "0x60e060405234801561001057600080fd5b506040516122f23803806122f28339818101604052606081101561003357600080fd5b810190808051906020019092919080519060200190929190805190602001909291905050508273ffffffffffffffffffffffffffffffffffffffff1660808173ffffffffffffffffffffffffffffffffffffffff1660601b815250508173ffffffffffffffffffffffffffffffffffffffff1660a08173ffffffffffffffffffffffffffffffffffffffff1660601b815250508073ffffffffffffffffffffffffffffffffffffffff1660c08173ffffffffffffffffffffffffffffffffffffffff1660601b8152505050505060805160601c60a05160601c60c05160601c61217861017a60003980608652806105a35280610652528061067e528061076952806107ee52508061074052806109925280610b9d5280610d7c5280610fd452806118625280611968528061199552508061071c52806108345280610d3952506121786000f3fe60806040526004361061007f5760003560e01c806399d6dca21161004e57806399d6dca214610373578063c45a015514610416578063f887ea401461046d578063fcddbf92146104c45761012a565b806304a367221461012f578063156521da146102005780633fc8cef3146102c35780638d7e41a81461031a5761012a565b3661012a577f000000000000000000000000000000000000000000000000000000000000000073ffffffffffffffffffffffffffffffffffffffff163373ffffffffffffffffffffffffffffffffffffffff1614610128576040517f08c379a00000000000000000000000000000000000000000000000000000000081526004018080602001828103825260358152602001806120a56035913960400191505060405180910390fd5b005b600080fd5b34801561013b57600080fd5b506101dc600480360360c081101561015257600080fd5b81019080803573ffffffffffffffffffffffffffffffffffffffff169060200190929190803573ffffffffffffffffffffffffffffffffffffffff1690602001909291908035906020019092919080359060200190929190803573ffffffffffffffffffffffffffffffffffffffff1690602001909291908035906020019092919050505061055e565b60405180848152602001838152602001828152602001935050505060405180910390f35b34801561020c57600080fd5b506102ad600480360360c081101561022357600080fd5b81019080803573ffffffffffffffffffffffffffffffffffffffff169060200190929190803573ffffffffffffffffffffffffffffffffffffffff1690602001909291908035906020019092919080359060200190929190803573ffffffffffffffffffffffffffffffffffffffff16906020019092919080359060200190929190505050610584565b6040518082815260200191505060405180910390f35b3480156102cf57600080fd5b506102d86105a1565b604051808273ffffffffffffffffffffffffffffffffffffffff1673ffffffffffffffffffffffffffffffffffffffff16815260200191505060405180910390f35b34801561032657600080fd5b5061035d6004803603604081101561033d57600080fd5b8101908080359060200190929190803590602001909291905050506105c5565b6040518082815260200191505060405180910390f35b34801561037f57600080fd5b50610400600480360360a081101561039657600080fd5b81019080803573ffffffffffffffffffffffffffffffffffffffff1690602001909291908035906020019092919080359060200190929190803573ffffffffffffffffffffffffffffffffffffffff16906020019092919080359060200190929190505050610649565b6040518082815260200191505060405180910390f35b34801561042257600080fd5b5061042b61071a565b604051808273ffffffffffffffffffffffffffffffffffffffff1673ffffffffffffffffffffffffffffffffffffffff16815260200191505060405180910390f35b34801561047957600080fd5b5061048261073e565b604051808273ffffffffffffffffffffffffffffffffffffffff1673ffffffffffffffffffffffffffffffffffffffff16815260200191505060405180910390f35b61053a600480360360808110156104da57600080fd5b81019080803573ffffffffffffffffffffffffffffffffffffffff16906020019092919080359060200190929190803573ffffffffffffffffffffffffffffffffffffffff16906020019092919080359060200190929190505050610762565b60405180848152602001838152602001828152602001935050505060405180910390f35b6000806000610572338a8a8a8a8a8a610827565b92509250925096509650969350505050565b600061059533888888888888610d31565b90509695505050505050565b7f000000000000000000000000000000000000000000000000000000000000000081565b6000614dee6106396105e2614e078661122290919063ffffffff16565b61062b6106266105ff6317c844318961122290919063ffffffff16565b6106166317c841c08961122290919063ffffffff16565b018861122290919063ffffffff16565b6112b7565b61131990919063ffffffff16565b8161064057fe5b04905092915050565b600061067a33877f000000000000000000000000000000000000000000000000000000000000000088883088610d31565b90507f000000000000000000000000000000000000000000000000000000000000000073ffffffffffffffffffffffffffffffffffffffff16632e1a7d4d826040518263ffffffff1660e01b815260040180828152602001915050600060405180830381600087803b1580156106ef57600080fd5b505af1158015610703573d6000803e3d6000fd5b50505050610711838261139c565b95945050505050565b7f000000000000000000000000000000000000000000000000000000000000000081565b7f000000000000000000000000000000000000000000000000000000000000000081565b60008060007f000000000000000000000000000000000000000000000000000000000000000073ffffffffffffffffffffffffffffffffffffffff1663d0e30db0346040518263ffffffff1660e01b81526004016000604051808303818588803b1580156107cf57600080fd5b505af11580156107e3573d6000803e3d6000fd5b5050505050610817307f000000000000000000000000000000000000000000000000000000000000000089348a8a8a610827565b9250925092509450945094915050565b600080600080600061085a7f00000000000000000000000000000000000000000000000000000000000000008c8c6114fb565b509050610867818a6105c5565b9150503073ffffffffffffffffffffffffffffffffffffffff168b73ffffffffffffffffffffffffffffffffffffffff16146108aa576108a98a8c308b611630565b5b6108b48a89611841565b6060600267ffffffffffffffff811180156108ce57600080fd5b506040519080825280602002602001820160405280156108fd5781602001602082028036833780820191505090505b5090508a8160008151811061090e57fe5b602002602001019073ffffffffffffffffffffffffffffffffffffffff16908173ffffffffffffffffffffffffffffffffffffffff1681525050898160018151811061095657fe5b602002602001019073ffffffffffffffffffffffffffffffffffffffff16908173ffffffffffffffffffffffffffffffffffffffff16815250507f000000000000000000000000000000000000000000000000000000000000000073ffffffffffffffffffffffffffffffffffffffff166338ed1739838a84308b6040518663ffffffff1660e01b815260040180868152602001858152602001806020018473ffffffffffffffffffffffffffffffffffffffff1673ffffffffffffffffffffffffffffffffffffffff168152602001838152602001828103825285818151815260200191508051906020019060200280838360005b83811015610a67578082015181840152602081019050610a4c565b505050509050019650505050505050600060405180830381600087803b158015610a9057600080fd5b505af1158015610aa4573d6000803e3d6000fd5b505050506040513d6000823e3d601f19601f820116820180604052506020811015610ace57600080fd5b8101908080516040519392919084640100000000821115610aee57600080fd5b83820191506020820185811115610b0457600080fd5b8251866020820283011164010000000082111715610b2157600080fd5b8083526020830192505050908051906020019060200280838360005b83811015610b58578082015181840152602081019050610b3d565b50505050905001604052505050600181518110610b7157fe5b6020026020010151935050610b868984611841565b610b99818961131990919063ffffffff16565b93507f000000000000000000000000000000000000000000000000000000000000000073ffffffffffffffffffffffffffffffffffffffff1663e8e337008b8b87876000808d8d6040518963ffffffff1660e01b8152600401808973ffffffffffffffffffffffffffffffffffffffff1673ffffffffffffffffffffffffffffffffffffffff1681526020018873ffffffffffffffffffffffffffffffffffffffff1673ffffffffffffffffffffffffffffffffffffffff1681526020018781526020018681526020018581526020018481526020018373ffffffffffffffffffffffffffffffffffffffff1673ffffffffffffffffffffffffffffffffffffffff16815260200182815260200198505050505050505050606060405180830381600087803b158015610ccb57600080fd5b505af1158015610cdf573d6000803e3d6000fd5b505050506040513d6060811015610cf557600080fd5b81019080805190602001909291908051906020019092919080519060200190929190505050909150905080925050509750975097945050505050565b600080610d5f7f000000000000000000000000000000000000000000000000000000000000000089896119e0565b9050610d6d818a3089611630565b610d778187611841565b6000807f000000000000000000000000000000000000000000000000000000000000000073ffffffffffffffffffffffffffffffffffffffff1663baa2abde8b8b8b600080308c6040518863ffffffff1660e01b8152600401808873ffffffffffffffffffffffffffffffffffffffff1673ffffffffffffffffffffffffffffffffffffffff1681526020018773ffffffffffffffffffffffffffffffffffffffff1673ffffffffffffffffffffffffffffffffffffffff1681526020018681526020018581526020018481526020018373ffffffffffffffffffffffffffffffffffffffff1673ffffffffffffffffffffffffffffffffffffffff1681526020018281526020019750505050505050506040805180830381600087803b158015610ea157600080fd5b505af1158015610eb5573d6000803e3d6000fd5b505050506040513d6040811015610ecb57600080fd5b81019080805190602001909291908051906020019092919050505091509150610ef48a83611841565b6060600267ffffffffffffffff81118015610f0e57600080fd5b50604051908082528060200260200182016040528015610f3d5781602001602082028036833780820191505090505b5090508a81600081518110610f4e57fe5b602002602001019073ffffffffffffffffffffffffffffffffffffffff16908173ffffffffffffffffffffffffffffffffffffffff16815250508981600181518110610f9657fe5b602002602001019073ffffffffffffffffffffffffffffffffffffffff16908173ffffffffffffffffffffffffffffffffffffffff168152505060007f000000000000000000000000000000000000000000000000000000000000000073ffffffffffffffffffffffffffffffffffffffff166338ed173985858c1161101d576000611021565b858c035b858c8c6040518663ffffffff1660e01b815260040180868152602001858152602001806020018473ffffffffffffffffffffffffffffffffffffffff1673ffffffffffffffffffffffffffffffffffffffff168152602001838152602001828103825285818151815260200191508051906020019060200280838360005b838110156110ba57808201518184015260208101905061109f565b505050509050019650505050505050600060405180830381600087803b1580156110e357600080fd5b505af11580156110f7573d6000803e3d6000fd5b505050506040513d6000823e3d601f19601f82011682018060405250602081101561112157600080fd5b810190808051604051939291908464010000000082111561114157600080fd5b8382019150602082018581111561115757600080fd5b825186602082028301116401000000008211171561117457600080fd5b8083526020830192505050908051906020019060200280838360005b838110156111ab578082015181840152602081019050611190565b505050509050016040525050506001815181106111c457fe5b602002602001015190503073ffffffffffffffffffffffffffffffffffffffff168873ffffffffffffffffffffffffffffffffffffffff161461120d5761120c8b8985611b3b565b5b80830195505050505050979650505050505050565b60008082148061123f575082828385029250828161123c57fe5b04145b6112b1576040517f08c379a00000000000000000000000000000000000000000000000000000000081526004018080602001828103825260148152602001807f64732d6d6174682d6d756c2d6f766572666c6f7700000000000000000000000081525060200191505060405180910390fd5b92915050565b600060038211156113065781905060006001600284816112d357fe5b040190505b81811015611300578091506002818285816112ef57fe5b0401816112f857fe5b0490506112d8565b50611314565b6000821461131357600190505b5b919050565b6000828284039150811115611396576040517f08c379a00000000000000000000000000000000000000000000000000000000081526004018080602001828103825260158152602001807f64732d6d6174682d7375622d756e646572666c6f77000000000000000000000081525060200191505060405180910390fd5b92915050565b60008273ffffffffffffffffffffffffffffffffffffffff1682600067ffffffffffffffff811180156113ce57600080fd5b506040519080825280601f01601f1916602001820160405280156114015781602001600182028036833780820191505090505b506040518082805190602001908083835b602083106114355780518252602082019150602081019050602083039250611412565b6001836020036101000a03801982511681845116808217855250505050505090500191505060006040518083038185875af1925050503d8060008114611497576040519150601f19603f3d011682016040523d82523d6000602084013e61149c565b606091505b50509050806114f6576040517f08c379a00000000000000000000000000000000000000000000000000000000081526004018080602001828103825260238152602001806120fc6023913960400191505060405180910390fd5b505050565b600080600061150a8585611d34565b5090506115188686866119e0565b506000806115278888886119e0565b73ffffffffffffffffffffffffffffffffffffffff16630902f1ac6040518163ffffffff1660e01b815260040160606040518083038186803b15801561156c57600080fd5b505afa158015611580573d6000803e3d6000fd5b505050506040513d606081101561159657600080fd5b81019080805190602001909291908051906020019092919080519060200190929190505050506dffffffffffffffffffffffffffff1691506dffffffffffffffffffffffffffff1691508273ffffffffffffffffffffffffffffffffffffffff168773ffffffffffffffffffffffffffffffffffffffff161461161a57808261161d565b81815b8095508196505050505050935093915050565b600060608573ffffffffffffffffffffffffffffffffffffffff166323b872dd868686604051602401808473ffffffffffffffffffffffffffffffffffffffff1673ffffffffffffffffffffffffffffffffffffffff1681526020018373ffffffffffffffffffffffffffffffffffffffff1673ffffffffffffffffffffffffffffffffffffffff16815260200182815260200193505050506040516020818303038152906040529060e01b6020820180517bffffffffffffffffffffffffffffffffffffffffffffffffffffffff83818316178352505050506040518082805190602001908083835b6020831061173d578051825260208201915060208101905060208303925061171a565b6001836020036101000a0380198251168184511680821785525050505050509050019150506000604051808303816000865af19150503d806000811461179f576040519150601f19603f3d011682016040523d82523d6000602084013e6117a4565b606091505b50915091508180156117e457506000815114806117e357508080602001905160208110156117d157600080fd5b81019080805190602001909291905050505b5b611839576040517f08c379a000000000000000000000000000000000000000000000000000000000815260040180806020018281038252602481526020018061211f6024913960400191505060405180910390fd5b505050505050565b60008273ffffffffffffffffffffffffffffffffffffffff1663dd62ed3e307f00000000000000000000000000000000000000000000000000000000000000006040518363ffffffff1660e01b8152600401808373ffffffffffffffffffffffffffffffffffffffff1673ffffffffffffffffffffffffffffffffffffffff1681526020018273ffffffffffffffffffffffffffffffffffffffff1673ffffffffffffffffffffffffffffffffffffffff1681526020019250505060206040518083038186803b15801561191457600080fd5b505afa158015611928573d6000803e3d6000fd5b505050506040513d602081101561193e57600080fd5b81019080805190602001909291905050509050818110156119db57600081111561198f5761198e837f00000000000000000000000000000000000000000000000000000000000000006000611eab565b5b6119da837f00000000000000000000000000000000000000000000000000000000000000007fffffffffffffffffffffffffffffffffffffffffffffffffffffffffffffffff611eab565b5b505050565b60008060006119ef8585611d34565b91509150858282604051602001808373ffffffffffffffffffffffffffffffffffffffff1673ffffffffffffffffffffffffffffffffffffffff1660601b81526014018273ffffffffffffffffffffffffffffffffffffffff1673ffffffffffffffffffffffffffffffffffffffff1660601b8152601401925050506040516020818303038152906040528051906020012060405160200180807fff000000000000000000000000000000000000000000000000000000000000008152506001018373ffffffffffffffffffffffffffffffffffffffff1673ffffffffffffffffffffffffffffffffffffffff1660601b8152601401828152602001807f8703d5f89be31a934ef8defce2c3d63a8f2a1217066ba898b6a34481a55527a0815250602001925050506040516020818303038152906040528051906020012060001c925050509392505050565b600060608473ffffffffffffffffffffffffffffffffffffffff1663a9059cbb8585604051602401808373ffffffffffffffffffffffffffffffffffffffff1673ffffffffffffffffffffffffffffffffffffffff168152602001828152602001925050506040516020818303038152906040529060e01b6020820180517bffffffffffffffffffffffffffffffffffffffffffffffffffffffff83818316178352505050506040518082805190602001908083835b60208310611c145780518252602082019150602081019050602083039250611bf1565b6001836020036101000a0380198251168184511680821785525050505050509050019150506000604051808303816000865af19150503d8060008114611c76576040519150601f19603f3d011682016040523d82523d6000602084013e611c7b565b606091505b5091509150818015611cbb5750600081511480611cba5750808060200190516020811015611ca857600080fd5b81019080805190602001909291905050505b5b611d2d576040517f08c379a000000000000000000000000000000000000000000000000000000000815260040180806020018281038252601f8152602001807f5472616e7366657248656c7065723a205452414e534645525f4641494c45440081525060200191505060405180910390fd5b5050505050565b6000808273ffffffffffffffffffffffffffffffffffffffff168473ffffffffffffffffffffffffffffffffffffffff161415611dbc576040517f08c379a00000000000000000000000000000000000000000000000000000000081526004018080602001828103825260228152602001806120da6022913960400191505060405180910390fd5b8273ffffffffffffffffffffffffffffffffffffffff168473ffffffffffffffffffffffffffffffffffffffff1610611df6578284611df9565b83835b8092508193505050600073ffffffffffffffffffffffffffffffffffffffff168273ffffffffffffffffffffffffffffffffffffffff161415611ea4576040517f08c379a000000000000000000000000000000000000000000000000000000000815260040180806020018281038252601b8152602001807f4469706f6c654c6962726172793a205a45524f5f41444452455353000000000081525060200191505060405180910390fd5b9250929050565b600060608473ffffffffffffffffffffffffffffffffffffffff1663095ea7b38585604051602401808373ffffffffffffffffffffffffffffffffffffffff1673ffffffffffffffffffffffffffffffffffffffff168152602001828152602001925050506040516020818303038152906040529060e01b6020820180517bffffffffffffffffffffffffffffffffffffffffffffffffffffffff83818316178352505050506040518082805190602001908083835b60208310611f845780518252602082019150602081019050602083039250611f61565b6001836020036101000a0380198251168184511680821785525050505050509050019150506000604051808303816000865af19150503d8060008114611fe6576040519150601f19603f3d011682016040523d82523d6000602084013e611feb565b606091505b509150915081801561202b575060008151148061202a575080806020019051602081101561201857600080fd5b81019080805190602001909291905050505b5b61209d576040517f08c379a000000000000000000000000000000000000000000000000000000000815260040180806020018281038252601e8152602001807f5472616e7366657248656c7065723a20415050524f56455f4641494c4544000081525060200191505060405180910390fd5b505050505056fe436f6d62696e65645377617041646452656d6f76654c69717569646974793a20524543454956455f4e4f545f46524f4d5f574554484469706f6c654c6962726172793a204944454e544943414c5f4144445245535345535472616e7366657248656c7065723a204554485f5452414e534645525f4641494c45445472616e7366657248656c7065723a205452414e534645525f46524f4d5f4641494c4544a2646970667358221220e24ddecb3c006ef08218fbabb31e57bf36f44dd93ab26400600f7f4cb7a9872c64736f6c63430006060033",
  "immutableReferences": {
    "728": [
      {
        "length": 32,
        "start": 1820
      },
      {
        "length": 32,
        "start": 2100
      },
      {
        "length": 32,
        "start": 3385
      }
    ],
    "730": [
      {
        "length": 32,
        "start": 1856
      },
      {
        "length": 32,
        "start": 2450
      },
      {
        "length": 32,
        "start": 2973
      },
      {
        "length": 32,
        "start": 3452
      },
      {
        "length": 32,
        "start": 4052
      },
      {
        "length": 32,
        "start": 6242
      },
      {
        "length": 32,
        "start": 6504
      },
      {
        "length": 32,
        "start": 6549
      }
    ],
    "732": [
      {
        "length": 32,
        "start": 134
      },
      {
        "length": 32,
        "start": 1443
      },
      {
        "length": 32,
        "start": 1618
      },
      {
        "length": 32,
        "start": 1662
      },
      {
        "length": 32,
        "start": 1897
      },
      {
        "length": 32,
        "start": 2030
      }
    ]
  },
  "source": "pragma solidity =0.6.6;\r\n\r\nimport \"@uniswap/v2-core/contracts/interfaces/IDipoleFactory.sol\";\r\nimport \"@uniswap/v2-core/contracts/interfaces/IDipolePair.sol\";\r\nimport \"@uniswap/lib/contracts/libraries/Babylonian.sol\";\r\nimport \"@uniswap/lib/contracts/libraries/TransferHelper.sol\";\r\n\r\nimport \"./interfaces/IDipoleRouter01.sol\";\r\nimport \"./interfaces/IWETH.sol\";\r\nimport \"./interfaces/IERC20.sol\";\r\nimport \"./libraries/SafeMath.sol\";\r\nimport \"./libraries/DipoleLibrary.sol\";\r\n\r\n// enables adding and removing liquidity with a single token to/from a pair\r\n// adds liquidity via a single token of the pair, by first swapping against the pair and then adding liquidity\r\n// removes liquidity in a single token, by removing liquidity and then immediately swapping\r\ncontract CombinedSwapAddRemoveLiquidity {\r\n    using SafeMath for uint;\r\n\r\n    IDipoleFactory public immutable factory;\r\n    IDipoleRouter01 public immutable router;\r\n    IWETH public immutable weth;\r\n\r\n    constructor(IDipoleFactory factory_, IDipoleRouter01 router_, IWETH weth_) public {\r\n        factory = factory_;\r\n        router = router_;\r\n        weth = weth_;\r\n    }\r\n\r\n    // grants unlimited approval for a token to the router unless the existing allowance is high enough\r\n    function approveRouter(address _token, uint256 _amount) internal {\r\n        uint256 allowance = IERC20(_token).allowance(address(this), address(router));\r\n        if (allowance < _amount) {\r\n            if (allowance > 0) {\r\n                // clear the existing allowance\r\n                TransferHelper.safeApprove(_token, address(router), 0);\r\n            }\r\n            TransferHelper.safeApprove(_token, address(router), uint256(-1));\r\n        }\r\n    }\r\n\r\n    // returns the amount of token that should be swapped in such that ratio of reserves in the pair is equivalent\r\n    // to the swapper's ratio of tokens\r\n    // note this depends only on the number of tokens the caller wishes to swap and the current reserves of that token,\r\n    // and not the current reserves of the other token\r\n    function calculateSwapInAmount(uint reserveIn, uint userIn) public pure returns (uint) {\r\n        return Babylonian.sqrt(reserveIn.mul(userIn.mul(399000000) + reserveIn.mul(399000625))).sub(reserveIn.mul(19975)) / 19950;\r\n    }\r\n\r\n    // internal function shared by the ETH/non-ETH versions\r\n    function _swapExactTokensAndAddLiquidity(\r\n        address from,\r\n        address tokenIn,\r\n        address otherToken,\r\n        uint amountIn,\r\n        uint minOtherTokenIn,\r\n        address to,\r\n        uint deadline\r\n    ) internal returns (uint amountTokenIn, uint amountTokenOther, uint liquidity) {\r\n        // compute how much we should swap in to match the reserve ratio of tokenIn / otherToken of the pair\r\n        uint swapInAmount;\r\n        {\r\n            (uint reserveIn,) = DipoleLibrary.getReserves(address(factory), tokenIn, otherToken);\r\n            swapInAmount = calculateSwapInAmount(reserveIn, amountIn);\r\n        }\r\n\r\n        // first take possession of the full amount from the caller, unless caller is this contract\r\n        if (from != address(this)) {\r\n            TransferHelper.safeTransferFrom(tokenIn, from, address(this), amountIn);\r\n        }\r\n        // approve for the swap, and then later the add liquidity. total is amountIn\r\n        approveRouter(tokenIn, amountIn);\r\n\r\n        {\r\n            address[] memory path = new address[](2);\r\n            path[0] = tokenIn;\r\n            path[1] = otherToken;\r\n\r\n            amountTokenOther = router.swapExactTokensForTokens(\r\n                swapInAmount,\r\n                minOtherTokenIn,\r\n                path,\r\n                address(this),\r\n                deadline\r\n            )[1];\r\n        }\r\n\r\n        // approve the other token for the add liquidity call\r\n        approveRouter(otherToken, amountTokenOther);\r\n        amountTokenIn = amountIn.sub(swapInAmount);\r\n\r\n        // no need to check that we transferred everything because minimums == total balance of this contract\r\n        (,,liquidity) = router.addLiquidity(\r\n            tokenIn,\r\n            otherToken,\r\n        // desired amountA, amountB\r\n            amountTokenIn,\r\n            amountTokenOther,\r\n        // amountTokenIn and amountTokenOther should match the ratio of reserves of tokenIn to otherToken\r\n        // thus we do not need to constrain the minimums here\r\n            0,\r\n            0,\r\n            to,\r\n            deadline\r\n        );\r\n    }\r\n\r\n    // computes the exact amount of tokens that should be swapped before adding liquidity for a given token\r\n    // does the swap and then adds liquidity\r\n    // minOtherToken should be set to the minimum intermediate amount of token1 that should be received to prevent\r\n    // excessive slippage or front running\r\n    // liquidity provider shares are minted to the 'to' address\r\n    function swapExactTokensAndAddLiquidity(\r\n        address tokenIn,\r\n        address otherToken,\r\n        uint amountIn,\r\n        uint minOtherTokenIn,\r\n        address to,\r\n        uint deadline\r\n    ) external returns (uint amountTokenIn, uint amountTokenOther, uint liquidity) {\r\n        return _swapExactTokensAndAddLiquidity(\r\n            msg.sender, tokenIn, otherToken, amountIn, minOtherTokenIn, to, deadline\r\n        );\r\n    }\r\n\r\n    // similar to the above method but handles converting ETH to WETH\r\n    function swapExactETHAndAddLiquidity(\r\n        address token,\r\n        uint minTokenIn,\r\n        address to,\r\n        uint deadline\r\n    ) external payable returns (uint amountETHIn, uint amountTokenIn, uint liquidity) {\r\n        weth.deposit{value: msg.value}();\r\n        return _swapExactTokensAndAddLiquidity(\r\n            address(this), address(weth), token, msg.value, minTokenIn, to, deadline\r\n        );\r\n    }\r\n\r\n    // internal function shared by the ETH/non-ETH versions\r\n    function _removeLiquidityAndSwap(\r\n        address from,\r\n        address undesiredToken,\r\n        address desiredToken,\r\n        uint liquidity,\r\n        uint minDesiredTokenOut,\r\n        address to,\r\n        uint deadline\r\n    ) internal returns (uint amountDesiredTokenOut) {\r\n        address pair = DipoleLibrary.pairFor(address(factory), undesiredToken, desiredToken);\r\n        // take possession of liquidity and give access to the router\r\n        TransferHelper.safeTransferFrom(pair, from, address(this), liquidity);\r\n        approveRouter(pair, liquidity);\r\n\r\n        (uint amountInToSwap, uint amountOutToTransfer) = router.removeLiquidity(\r\n            undesiredToken,\r\n            desiredToken,\r\n            liquidity,\r\n        // amount minimums are applied in the swap\r\n            0,\r\n            0,\r\n        // contract must receive both tokens because we want to swap the undesired token\r\n            address(this),\r\n            deadline\r\n        );\r\n\r\n        // send the amount in that we received in the burn\r\n        approveRouter(undesiredToken, amountInToSwap);\r\n\r\n        address[] memory path = new address[](2);\r\n        path[0] = undesiredToken;\r\n        path[1] = desiredToken;\r\n\r\n        uint amountOutSwap = router.swapExactTokensForTokens(\r\n            amountInToSwap,\r\n        // we must get at least this much from the swap to meet the minDesiredTokenOut parameter\r\n            minDesiredTokenOut > amountOutToTransfer ? minDesiredTokenOut - amountOutToTransfer : 0,\r\n            path,\r\n            to,\r\n            deadline\r\n        )[1];\r\n\r\n        // we do this after the swap to save gas in the case where we do not meet the minimum output\r\n        if (to != address(this)) {\r\n            TransferHelper.safeTransfer(desiredToken, to, amountOutToTransfer);\r\n        }\r\n        amountDesiredTokenOut = amountOutToTransfer + amountOutSwap;\r\n    }\r\n\r\n    // burn the liquidity and then swap one of the two tokens to the other\r\n    // enforces that at least minDesiredTokenOut tokens are received from the combination of burn and swap\r\n    function removeLiquidityAndSwapToToken(\r\n        address undesiredToken,\r\n        address desiredToken,\r\n        uint liquidity,\r\n        uint minDesiredTokenOut,\r\n        address to,\r\n        uint deadline\r\n    ) external returns (uint amountDesiredTokenOut) {\r\n        return _removeLiquidityAndSwap(\r\n            msg.sender, undesiredToken, desiredToken, liquidity, minDesiredTokenOut, to, deadline\r\n        );\r\n    }\r\n\r\n    // only WETH can send to this contract without a function call.\r\n    receive() payable external {\r\n        require(msg.sender == address(weth), 'CombinedSwapAddRemoveLiquidity: RECEIVE_NOT_FROM_WETH');\r\n    }\r\n\r\n    // similar to the above method but for when the desired token is WETH, handles unwrapping\r\n    function removeLiquidityAndSwapToETH(\r\n        address token,\r\n        uint liquidity,\r\n        uint minDesiredETH,\r\n        address to,\r\n        uint deadline\r\n    ) external returns (uint amountETHOut) {\r\n        // do the swap remove and swap to this address\r\n        amountETHOut = _removeLiquidityAndSwap(\r\n            msg.sender, token, address(weth), liquidity, minDesiredETH, address(this), deadline\r\n        );\r\n\r\n        // now withdraw to ETH and forward to the recipient\r\n        weth.withdraw(amountETHOut);\r\n        TransferHelper.safeTransferETH(to, amountETHOut);\r\n    }\r\n}\r\n",
  "sourcePath": "/Users/juzix/work/swap/code/dipole-swap-periphery/contracts/CombinedSwapAddRemoveLiquidity.sol",
  "compiler": {
    "name": "solc",
    "version": "0.6.6+commit.6c089d02.Emscripten.clang"
  },
  "schemaVersion": "3.4.3",
  "updatedAt": "2022-04-14T05:44:14.709Z",
  "devdoc": {
    "methods": {}
  },
  "userdoc": {
    "methods": {}
  }
}