{
  "contractName": "Dipole",
  "abi": [
    {
      "inputs": [
        {
          "internalType": "address",
          "name": "account",
          "type": "address"
        },
        {
          "internalType": "address",
          "name": "minter_",
          "type": "address"
        }
      ],
      "payable": false,
      "stateMutability": "nonpayable",
      "type": "constructor"
    },
    {
      "anonymous": false,
      "inputs": [
        {
          "indexed": true,
          "internalType": "address",
          "name": "owner",
          "type": "address"
        },
        {
          "indexed": true,
          "internalType": "address",
          "name": "spender",
          "type": "address"
        },
        {
          "indexed": false,
          "internalType": "uint256",
          "name": "amount",
          "type": "uint256"
        }
      ],
      "name": "Approval",
      "type": "event"
    },
    {
      "anonymous": false,
      "inputs": [
        {
          "indexed": true,
          "internalType": "address",
          "name": "delegator",
          "type": "address"
        },
        {
          "indexed": true,
          "internalType": "address",
          "name": "fromDelegate",
          "type": "address"
        },
        {
          "indexed": true,
          "internalType": "address",
          "name": "toDelegate",
          "type": "address"
        }
      ],
      "name": "DelegateChanged",
      "type": "event"
    },
    {
      "anonymous": false,
      "inputs": [
        {
          "indexed": true,
          "internalType": "address",
          "name": "delegate",
          "type": "address"
        },
        {
          "indexed": false,
          "internalType": "uint256",
          "name": "previousBalance",
          "type": "uint256"
        },
        {
          "indexed": false,
          "internalType": "uint256",
          "name": "newBalance",
          "type": "uint256"
        }
      ],
      "name": "DelegateVotesChanged",
      "type": "event"
    },
    {
      "anonymous": false,
      "inputs": [
        {
          "indexed": false,
          "internalType": "address",
          "name": "minter",
          "type": "address"
        },
        {
          "indexed": false,
          "internalType": "address",
          "name": "newMinter",
          "type": "address"
        }
      ],
      "name": "MinterChanged",
      "type": "event"
    },
    {
      "anonymous": false,
      "inputs": [
        {
          "indexed": true,
          "internalType": "address",
          "name": "from",
          "type": "address"
        },
        {
          "indexed": true,
          "internalType": "address",
          "name": "to",
          "type": "address"
        },
        {
          "indexed": false,
          "internalType": "uint256",
          "name": "amount",
          "type": "uint256"
        }
      ],
      "name": "Transfer",
      "type": "event"
    },
    {
      "constant": true,
      "inputs": [],
      "name": "DELEGATION_TYPEHASH",
      "outputs": [
        {
          "internalType": "bytes32",
          "name": "",
          "type": "bytes32"
        }
      ],
      "payable": false,
      "stateMutability": "view",
      "type": "function"
    },
    {
      "constant": true,
      "inputs": [],
      "name": "DOMAIN_SEPARATOR",
      "outputs": [
        {
          "internalType": "bytes32",
          "name": "",
          "type": "bytes32"
        }
      ],
      "payable": false,
      "stateMutability": "view",
      "type": "function"
    },
    {
      "constant": true,
      "inputs": [],
      "name": "DOMAIN_SEPARATOR_NEW",
      "outputs": [
        {
          "internalType": "bytes32",
          "name": "",
          "type": "bytes32"
        }
      ],
      "payable": false,
      "stateMutability": "view",
      "type": "function"
    },
    {
      "constant": true,
      "inputs": [],
      "name": "DOMAIN_TYPEHASH",
      "outputs": [
        {
          "internalType": "bytes32",
          "name": "",
          "type": "bytes32"
        }
      ],
      "payable": false,
      "stateMutability": "view",
      "type": "function"
    },
    {
      "constant": true,
      "inputs": [],
      "name": "PERMIT_TYPEHASH",
      "outputs": [
        {
          "internalType": "bytes32",
          "name": "",
          "type": "bytes32"
        }
      ],
      "payable": false,
      "stateMutability": "view",
      "type": "function"
    },
    {
      "constant": true,
      "inputs": [
        {
          "internalType": "address",
          "name": "",
          "type": "address"
        },
        {
          "internalType": "uint32",
          "name": "",
          "type": "uint32"
        }
      ],
      "name": "checkpoints",
      "outputs": [
        {
          "internalType": "uint32",
          "name": "fromBlock",
          "type": "uint32"
        },
        {
          "internalType": "uint96",
          "name": "votes",
          "type": "uint96"
        }
      ],
      "payable": false,
      "stateMutability": "view",
      "type": "function"
    },
    {
      "constant": true,
      "inputs": [],
      "name": "decimals",
      "outputs": [
        {
          "internalType": "uint8",
          "name": "",
          "type": "uint8"
        }
      ],
      "payable": false,
      "stateMutability": "view",
      "type": "function"
    },
    {
      "constant": true,
      "inputs": [
        {
          "internalType": "address",
          "name": "",
          "type": "address"
        }
      ],
      "name": "delegates",
      "outputs": [
        {
          "internalType": "address",
          "name": "",
          "type": "address"
        }
      ],
      "payable": false,
      "stateMutability": "view",
      "type": "function"
    },
    {
      "constant": true,
      "inputs": [],
      "name": "minimumTimeBetweenMints",
      "outputs": [
        {
          "internalType": "uint256",
          "name": "",
          "type": "uint256"
        }
      ],
      "payable": false,
      "stateMutability": "view",
      "type": "function"
    },
    {
      "constant": true,
      "inputs": [],
      "name": "mintCap",
      "outputs": [
        {
          "internalType": "uint8",
          "name": "",
          "type": "uint8"
        }
      ],
      "payable": false,
      "stateMutability": "view",
      "type": "function"
    },
    {
      "constant": true,
      "inputs": [],
      "name": "minter",
      "outputs": [
        {
          "internalType": "address",
          "name": "",
          "type": "address"
        }
      ],
      "payable": false,
      "stateMutability": "view",
      "type": "function"
    },
    {
      "constant": true,
      "inputs": [],
      "name": "mintingAllowedAfter",
      "outputs": [
        {
          "internalType": "uint256",
          "name": "",
          "type": "uint256"
        }
      ],
      "payable": false,
      "stateMutability": "view",
      "type": "function"
    },
    {
      "constant": true,
      "inputs": [],
      "name": "name",
      "outputs": [
        {
          "internalType": "string",
          "name": "",
          "type": "string"
        }
      ],
      "payable": false,
      "stateMutability": "view",
      "type": "function"
    },
    {
      "constant": true,
      "inputs": [
        {
          "internalType": "address",
          "name": "",
          "type": "address"
        }
      ],
      "name": "nonces",
      "outputs": [
        {
          "internalType": "uint256",
          "name": "",
          "type": "uint256"
        }
      ],
      "payable": false,
      "stateMutability": "view",
      "type": "function"
    },
    {
      "constant": true,
      "inputs": [
        {
          "internalType": "address",
          "name": "",
          "type": "address"
        }
      ],
      "name": "numCheckpoints",
      "outputs": [
        {
          "internalType": "uint32",
          "name": "",
          "type": "uint32"
        }
      ],
      "payable": false,
      "stateMutability": "view",
      "type": "function"
    },
    {
      "constant": true,
      "inputs": [
        {
          "internalType": "uint256",
          "name": "",
          "type": "uint256"
        }
      ],
      "name": "supplyFourYear",
      "outputs": [
        {
          "internalType": "uint256",
          "name": "",
          "type": "uint256"
        }
      ],
      "payable": false,
      "stateMutability": "view",
      "type": "function"
    },
    {
      "constant": true,
      "inputs": [],
      "name": "supplyIndex",
      "outputs": [
        {
          "internalType": "uint256",
          "name": "",
          "type": "uint256"
        }
      ],
      "payable": false,
      "stateMutability": "view",
      "type": "function"
    },
    {
      "constant": true,
      "inputs": [],
      "name": "symbol",
      "outputs": [
        {
          "internalType": "string",
          "name": "",
          "type": "string"
        }
      ],
      "payable": false,
      "stateMutability": "view",
      "type": "function"
    },
    {
      "constant": true,
      "inputs": [],
      "name": "totalSupply",
      "outputs": [
        {
          "internalType": "uint256",
          "name": "",
          "type": "uint256"
        }
      ],
      "payable": false,
      "stateMutability": "view",
      "type": "function"
    },
    {
      "constant": false,
      "inputs": [
        {
          "internalType": "address",
          "name": "minter_",
          "type": "address"
        }
      ],
      "name": "setMinter",
      "outputs": [],
      "payable": false,
      "stateMutability": "nonpayable",
      "type": "function"
    },
    {
      "constant": false,
      "inputs": [
        {
          "internalType": "address",
          "name": "dst",
          "type": "address"
        },
        {
          "internalType": "uint256",
          "name": "rawAmount",
          "type": "uint256"
        }
      ],
      "name": "mint",
      "outputs": [],
      "payable": false,
      "stateMutability": "nonpayable",
      "type": "function"
    },
    {
      "constant": true,
      "inputs": [
        {
          "internalType": "address",
          "name": "account",
          "type": "address"
        },
        {
          "internalType": "address",
          "name": "spender",
          "type": "address"
        }
      ],
      "name": "allowance",
      "outputs": [
        {
          "internalType": "uint256",
          "name": "",
          "type": "uint256"
        }
      ],
      "payable": false,
      "stateMutability": "view",
      "type": "function"
    },
    {
      "constant": false,
      "inputs": [
        {
          "internalType": "address",
          "name": "spender",
          "type": "address"
        },
        {
          "internalType": "uint256",
          "name": "rawAmount",
          "type": "uint256"
        }
      ],
      "name": "approve",
      "outputs": [
        {
          "internalType": "bool",
          "name": "",
          "type": "bool"
        }
      ],
      "payable": false,
      "stateMutability": "nonpayable",
      "type": "function"
    },
    {
      "constant": false,
      "inputs": [
        {
          "internalType": "address",
          "name": "owner",
          "type": "address"
        },
        {
          "internalType": "address",
          "name": "spender",
          "type": "address"
        },
        {
          "internalType": "uint256",
          "name": "rawAmount",
          "type": "uint256"
        },
        {
          "internalType": "uint256",
          "name": "deadline",
          "type": "uint256"
        },
        {
          "internalType": "uint8",
          "name": "v",
          "type": "uint8"
        },
        {
          "internalType": "bytes32",
          "name": "r",
          "type": "bytes32"
        },
        {
          "internalType": "bytes32",
          "name": "s",
          "type": "bytes32"
        }
      ],
      "name": "permit",
      "outputs": [],
      "payable": false,
      "stateMutability": "nonpayable",
      "type": "function"
    },
    {
      "constant": true,
      "inputs": [
        {
          "internalType": "address",
          "name": "account",
          "type": "address"
        }
      ],
      "name": "balanceOf",
      "outputs": [
        {
          "internalType": "uint256",
          "name": "",
          "type": "uint256"
        }
      ],
      "payable": false,
      "stateMutability": "view",
      "type": "function"
    },
    {
      "constant": false,
      "inputs": [
        {
          "internalType": "address",
          "name": "dst",
          "type": "address"
        },
        {
          "internalType": "uint256",
          "name": "rawAmount",
          "type": "uint256"
        }
      ],
      "name": "transfer",
      "outputs": [
        {
          "internalType": "bool",
          "name": "",
          "type": "bool"
        }
      ],
      "payable": false,
      "stateMutability": "nonpayable",
      "type": "function"
    },
    {
      "constant": false,
      "inputs": [
        {
          "internalType": "address",
          "name": "src",
          "type": "address"
        },
        {
          "internalType": "address",
          "name": "dst",
          "type": "address"
        },
        {
          "internalType": "uint256",
          "name": "rawAmount",
          "type": "uint256"
        }
      ],
      "name": "transferFrom",
      "outputs": [
        {
          "internalType": "bool",
          "name": "",
          "type": "bool"
        }
      ],
      "payable": false,
      "stateMutability": "nonpayable",
      "type": "function"
    },
    {
      "constant": false,
      "inputs": [
        {
          "internalType": "address",
          "name": "delegatee",
          "type": "address"
        }
      ],
      "name": "delegate",
      "outputs": [],
      "payable": false,
      "stateMutability": "nonpayable",
      "type": "function"
    },
    {
      "constant": false,
      "inputs": [
        {
          "internalType": "address",
          "name": "delegatee",
          "type": "address"
        },
        {
          "internalType": "uint256",
          "name": "nonce",
          "type": "uint256"
        },
        {
          "internalType": "uint256",
          "name": "expiry",
          "type": "uint256"
        },
        {
          "internalType": "uint8",
          "name": "v",
          "type": "uint8"
        },
        {
          "internalType": "bytes32",
          "name": "r",
          "type": "bytes32"
        },
        {
          "internalType": "bytes32",
          "name": "s",
          "type": "bytes32"
        }
      ],
      "name": "delegateBySig",
      "outputs": [],
      "payable": false,
      "stateMutability": "nonpayable",
      "type": "function"
    },
    {
      "constant": true,
      "inputs": [
        {
          "internalType": "address",
          "name": "account",
          "type": "address"
        }
      ],
      "name": "getCurrentVotes",
      "outputs": [
        {
          "internalType": "uint96",
          "name": "",
          "type": "uint96"
        }
      ],
      "payable": false,
      "stateMutability": "view",
      "type": "function"
    },
    {
      "constant": true,
      "inputs": [
        {
          "internalType": "address",
          "name": "account",
          "type": "address"
        },
        {
          "internalType": "uint256",
          "name": "blockNumber",
          "type": "uint256"
        }
      ],
      "name": "getPriorVotes",
      "outputs": [
        {
          "internalType": "uint96",
          "name": "",
          "type": "uint96"
        }
      ],
      "payable": false,
      "stateMutability": "view",
      "type": "function"
    },
    {
      "constant": true,
      "inputs": [],
      "name": "getOwner",
      "outputs": [
        {
          "internalType": "address",
          "name": "",
          "type": "address"
        }
      ],
      "payable": false,
      "stateMutability": "view",
      "type": "function"
    }
  ],
  "bytecode": "0x60806040526b014adf4b7320334b9000000060005560405180608001604052806b014adf4b7320334b900000006bffffffffffffffffffffffff1681526020016af8277896582678ac0000006bffffffffffffffffffffffff1681526020016aa56fa5b99019a5c80000006bffffffffffffffffffffffff1681526020016a52b7d2dcc80cd2e40000006bffffffffffffffffffffffff168152506001906004620000ac92919062000426565b50348015620000ba57600080fd5b5060405162004d1238038062004d128339818101604052620000e09190810190620004c7565b6000600281905550600160025481548110620000f857fe5b9060005260206000200154600660008473ffffffffffffffffffffffffffffffffffffffff1673ffffffffffffffffffffffffffffffffffffffff16815260200190815260200160002060006101000a8154816bffffffffffffffffffffffff02191690836bffffffffffffffffffffffff1602179055508173ffffffffffffffffffffffffffffffffffffffff16600073ffffffffffffffffffffffffffffffffffffffff167fddf252ad1be2c89b69c2b068fc378daa952ba7f163c4a11628f55a4df523b3ef600054604051620001d291906200072d565b60405180910390a380600360006101000a81548173ffffffffffffffffffffffffffffffffffffffff021916908373ffffffffffffffffffffffffffffffffffffffff1602179055507f3b0007eb941cf645526cbb3a4fdaecda9d28ce4843167d9263b536a1f1edc0f66000600360009054906101000a900473ffffffffffffffffffffffffffffffffffffffff166040516200027192919062000644565b60405180910390a16200029542640757b12c00620003c160201b620022f51760201c565b600481905550604051620002a9906200062d565b60405180910390206040518060400160405280601081526020017f4469706f6c655377617020546f6b656e0000000000000000000000000000000081525080519060200120620002fe6200041960201b60201c565b30604051602001620003149493929190620006be565b60405160208183030381529060405280519060200120600b819055506040516200033e906200062d565b60405180910390206040518060400160405280601081526020017f4469706f6c655377617020546f6b656e0000000000000000000000000000000081525080519060200120620335f9306040516020016200039d949392919062000671565b60405160208183030381529060405280519060200120600c81905550505062000827565b6000808284019050838110156200040f576040517f08c379a000000000000000000000000000000000000000000000000000000000815260040162000406906200070b565b60405180910390fd5b8091505092915050565b6000804690508091505090565b82805482825590600052602060002090810192821562000475579160200282015b828111156200047457825182906bffffffffffffffffffffffff1690559160200191906001019062000447565b5b50905062000484919062000488565b5090565b620004ad91905b80821115620004a95760008160009055506001016200048f565b5090565b90565b600081519050620004c1816200080d565b92915050565b60008060408385031215620004db57600080fd5b6000620004eb85828601620004b0565b9250506020620004fe85828601620004b0565b9150509250929050565b6200051381620007bd565b82525050565b620005248162000766565b82525050565b62000535816200077a565b82525050565b6200054681620007d1565b82525050565b60006200055b601b836200074a565b91507f536166654d6174683a206164646974696f6e206f766572666c6f7700000000006000830152602082019050919050565b60006200059d6043836200075b565b91507f454950373132446f6d61696e28737472696e67206e616d652c75696e7432353660008301527f20636861696e49642c6164647265737320766572696679696e67436f6e74726160208301527f63742900000000000000000000000000000000000000000000000000000000006040830152604382019050919050565b6200062781620007b3565b82525050565b60006200063a826200058e565b9150819050919050565b60006040820190506200065b600083018562000508565b6200066a602083018462000519565b9392505050565b60006080820190506200068860008301876200052a565b6200069760208301866200052a565b620006a660408301856200053b565b620006b5606083018462000519565b95945050505050565b6000608082019050620006d560008301876200052a565b620006e460208301866200052a565b620006f360408301856200061c565b62000702606083018462000519565b95945050505050565b6000602082019050818103600083015262000726816200054c565b9050919050565b60006020820190506200074460008301846200061c565b92915050565b600082825260208201905092915050565b600081905092915050565b6000620007738262000784565b9050919050565b6000819050919050565b600073ffffffffffffffffffffffffffffffffffffffff82169050919050565b600062ffffff82169050919050565b6000819050919050565b6000620007ca82620007e5565b9050919050565b6000620007de82620007a4565b9050919050565b6000620007f282620007f9565b9050919050565b6000620008068262000784565b9050919050565b620008188162000766565b81146200082457600080fd5b50565b6144db80620008376000396000f3fe608060405234801561001057600080fd5b50600436106101f05760003560e01c80636fcfff451161010f578063a9059cbb116100a2578063dd62ed3e11610071578063dd62ed3e146105e9578063e7a324dc14610619578063f1127ed814610637578063fca3b5aa14610668576101f0565b8063a9059cbb14610551578063b4b5ea5714610581578063c3cda520146105b1578063d505accf146105cd576101f0565b80637ecebe00116100de5780637ecebe00146104c7578063893d20e8146104f757806395d89b411461051557806398f1bc1214610533576101f0565b80636fcfff451461041957806370a082311461044957806376c71ca114610479578063782d6fe114610497576101f0565b806330b36cef11610187578063587cde1e11610156578063587cde1e146103915780635c11d62f146103c15780635c19a95c146103df5780636979b055146103fb576101f0565b806330b36cef1461031b578063313ce567146103395780633644e5151461035757806340c10f1914610375576101f0565b806320606b70116101c357806320606b701461027f578063217615a91461029d57806323b872dd146102cd57806330adf81f146102fd576101f0565b806306fdde03146101f55780630754617214610213578063095ea7b31461023157806318160ddd14610261575b600080fd5b6101fd610684565b60405161020a9190613dd4565b60405180910390f35b61021b6106bd565b6040516102289190613c6f565b60405180910390f35b61024b60048036036102469190810190613222565b6106e3565b6040516102589190613cb3565b60405180910390f35b610269610876565b6040516102769190614018565b60405180910390f35b61028761087c565b6040516102949190613cce565b60405180910390f35b6102b760048036036102b29190810190613323565b610893565b6040516102c49190614018565b60405180910390f35b6102e760048036036102e29190810190613135565b6108b4565b6040516102f49190613cb3565b60405180910390f35b610305610b48565b6040516103129190613cce565b60405180910390f35b610323610b5f565b6040516103309190614018565b60405180910390f35b610341610b65565b60405161034e9190614077565b60405180910390f35b61035f610b6a565b60405161036c9190613cce565b60405180910390f35b61038f600480360361038a9190810190613222565b610b70565b005b6103ab60048036036103a691908101906130d0565b610fc8565b6040516103b89190613c6f565b60405180910390f35b6103c9610ffb565b6040516103d69190614018565b60405180910390f35b6103f960048036036103f491908101906130d0565b611004565b005b610403611011565b6040516104109190613cce565b60405180910390f35b610433600480360361042e91908101906130d0565b611017565b6040516104409190614033565b60405180910390f35b610463600480360361045e91908101906130d0565b61103a565b6040516104709190614018565b60405180910390f35b6104816110a9565b60405161048e9190614077565b60405180910390f35b6104b160048036036104ac9190810190613222565b6110ae565b6040516104be91906140ad565b60405180910390f35b6104e160048036036104dc91908101906130d0565b6114c1565b6040516104ee9190614018565b60405180910390f35b6104ff6114d9565b60405161050c9190613c6f565b60405180910390f35b61051d611503565b60405161052a9190613dd4565b60405180910390f35b61053b61153c565b6040516105489190614018565b60405180910390f35b61056b60048036036105669190810190613222565b611542565b6040516105789190613cb3565b60405180910390f35b61059b600480360361059691908101906130d0565b61157f565b6040516105a891906140ad565b60405180910390f35b6105cb60048036036105c6919081019061325e565b61166d565b005b6105e760048036036105e29190810190613184565b6119c8565b005b61060360048036036105fe91908101906130f9565b611bf9565b6040516106109190614018565b60405180910390f35b610621611ca6565b60405161062e9190613cce565b60405180910390f35b610651600480360361064c91908101906132e7565b611cbd565b60405161065f92919061404e565b60405180910390f35b610682600480360361067d91908101906130d0565b611d16565b005b6040518060400160405280601081526020017f4469706f6c655377617020546f6b656e0000000000000000000000000000000081525081565b600360009054906101000a900473ffffffffffffffffffffffffffffffffffffffff1681565b6000807fffffffffffffffffffffffffffffffffffffffffffffffffffffffffffffffff831415610736577fffffffffffffffffffffffffffffffffffffffffffffffffffffffffffffffff905061075b565b6107588360405180606001604052806027815260200161438760279139611e45565b90505b80600560003373ffffffffffffffffffffffffffffffffffffffff1673ffffffffffffffffffffffffffffffffffffffff16815260200190815260200160002060008673ffffffffffffffffffffffffffffffffffffffff1673ffffffffffffffffffffffffffffffffffffffff16815260200190815260200160002060006101000a8154816bffffffffffffffffffffffff02191690836bffffffffffffffffffffffff1602179055508373ffffffffffffffffffffffffffffffffffffffff163373ffffffffffffffffffffffffffffffffffffffff167f8c5be1e5ebec7d5bd14f71427d1e84f3dd0314c0f7b2291e5b200ac8c7c3b925836040516108639190614092565b60405180910390a3600191505092915050565b60005481565b60405161088890613c45565b604051809103902081565b600181815481106108a057fe5b906000526020600020016000915090505481565b6000803390506000600560008773ffffffffffffffffffffffffffffffffffffffff1673ffffffffffffffffffffffffffffffffffffffff16815260200190815260200160002060008373ffffffffffffffffffffffffffffffffffffffff1673ffffffffffffffffffffffffffffffffffffffff16815260200190815260200160002060009054906101000a90046bffffffffffffffffffffffff16905060006109778560405180606001604052806027815260200161438760279139611e45565b90508673ffffffffffffffffffffffffffffffffffffffff168373ffffffffffffffffffffffffffffffffffffffff16141580156109f157507fffffffffffffffffffffffffffffffffffffffffffffffffffffffffffffffff6bffffffffffffffffffffffff16826bffffffffffffffffffffffff1614155b15610b2f576000610a1b83836040518060600160405280603f81526020016142b0603f9139611ea3565b905080600560008a73ffffffffffffffffffffffffffffffffffffffff1673ffffffffffffffffffffffffffffffffffffffff16815260200190815260200160002060008673ffffffffffffffffffffffffffffffffffffffff1673ffffffffffffffffffffffffffffffffffffffff16815260200190815260200160002060006101000a8154816bffffffffffffffffffffffff02191690836bffffffffffffffffffffffff1602179055508373ffffffffffffffffffffffffffffffffffffffff168873ffffffffffffffffffffffffffffffffffffffff167f8c5be1e5ebec7d5bd14f71427d1e84f3dd0314c0f7b2291e5b200ac8c7c3b92583604051610b259190614092565b60405180910390a3505b610b3a878783611f14565b600193505050509392505050565b604051610b5490613c30565b604051809103902081565b60045481565b601281565b600b5481565b600360009054906101000a900473ffffffffffffffffffffffffffffffffffffffff1673ffffffffffffffffffffffffffffffffffffffff163373ffffffffffffffffffffffffffffffffffffffff1614610c00576040517f08c379a0000000000000000000000000000000000000000000000000000000008152600401610bf790613ef8565b60405180910390fd5b600454421015610c45576040517f08c379a0000000000000000000000000000000000000000000000000000000008152600401610c3c90613e18565b60405180910390fd5b600073ffffffffffffffffffffffffffffffffffffffff168273ffffffffffffffffffffffffffffffffffffffff161415610cb5576040517f08c379a0000000000000000000000000000000000000000000000000000000008152600401610cac90613ff8565b60405180910390fd5b610cc442640757b12c006122f5565b60048190555060008090506002805411610d2d57610d156001806002540181548110610cec57fe5b906000526020600020015460405180606001604052806024815260200161444d60249139611e45565b90506001600260008282540192505081905550610dbc565b610d4f8260405180606001604052806024815260200161444d60249139611e45565b9050610d6b610d64600054600260ff1661234a565b60646123ba565b816bffffffffffffffffffffffff161115610dbb576040517f08c379a0000000000000000000000000000000000000000000000000000000008152600401610db290613f98565b60405180910390fd5b5b610df7610dd9600054836bffffffffffffffffffffffff166122f5565b6040518060600160405280602981526020016143ae60299139611e45565b6bffffffffffffffffffffffff16600081905550610e85600660008573ffffffffffffffffffffffffffffffffffffffff1673ffffffffffffffffffffffffffffffffffffffff16815260200190815260200160002060009054906101000a90046bffffffffffffffffffffffff16826040518060600160405280602781526020016143d760279139612404565b600660008573ffffffffffffffffffffffffffffffffffffffff1673ffffffffffffffffffffffffffffffffffffffff16815260200190815260200160002060006101000a8154816bffffffffffffffffffffffff02191690836bffffffffffffffffffffffff1602179055508273ffffffffffffffffffffffffffffffffffffffff16600073ffffffffffffffffffffffffffffffffffffffff167fddf252ad1be2c89b69c2b068fc378daa952ba7f163c4a11628f55a4df523b3ef83604051610f509190614092565b60405180910390a3610fc36000600760008673ffffffffffffffffffffffffffffffffffffffff1673ffffffffffffffffffffffffffffffffffffffff16815260200190815260200160002060009054906101000a900473ffffffffffffffffffffffffffffffffffffffff168361247a565b505050565b60076020528060005260406000206000915054906101000a900473ffffffffffffffffffffffffffffffffffffffff1681565b640757b12c0081565b61100e3382612775565b50565b600c5481565b60096020528060005260406000206000915054906101000a900463ffffffff1681565b6000600660008373ffffffffffffffffffffffffffffffffffffffff1673ffffffffffffffffffffffffffffffffffffffff16815260200190815260200160002060009054906101000a90046bffffffffffffffffffffffff166bffffffffffffffffffffffff169050919050565b600281565b60004382106110f2576040517f08c379a00000000000000000000000000000000000000000000000000000000081526004016110e990613f38565b60405180910390fd5b6000600960008573ffffffffffffffffffffffffffffffffffffffff1673ffffffffffffffffffffffffffffffffffffffff16815260200190815260200160002060009054906101000a900463ffffffff16905060008163ffffffff16141561115f5760009150506114bb565b82600860008673ffffffffffffffffffffffffffffffffffffffff1673ffffffffffffffffffffffffffffffffffffffff16815260200190815260200160002060006001840363ffffffff1663ffffffff16815260200190815260200160002060000160009054906101000a900463ffffffff1663ffffffff161161126157600860008573ffffffffffffffffffffffffffffffffffffffff1673ffffffffffffffffffffffffffffffffffffffff16815260200190815260200160002060006001830363ffffffff1663ffffffff16815260200190815260200160002060000160049054906101000a90046bffffffffffffffffffffffff169150506114bb565b82600860008673ffffffffffffffffffffffffffffffffffffffff1673ffffffffffffffffffffffffffffffffffffffff16815260200190815260200160002060008063ffffffff16815260200190815260200160002060000160009054906101000a900463ffffffff1663ffffffff1611156112e25760009150506114bb565b600080905060006001830390505b8163ffffffff168163ffffffff16111561143d576000600283830363ffffffff168161131857fe5b0482039050611325613039565b600860008973ffffffffffffffffffffffffffffffffffffffff1673ffffffffffffffffffffffffffffffffffffffff16815260200190815260200160002060008363ffffffff1663ffffffff1681526020019081526020016000206040518060400160405290816000820160009054906101000a900463ffffffff1663ffffffff1663ffffffff1681526020016000820160049054906101000a90046bffffffffffffffffffffffff166bffffffffffffffffffffffff166bffffffffffffffffffffffff1681525050905086816000015163ffffffff161415611415578060200151955050505050506114bb565b86816000015163ffffffff16101561142f57819350611436565b6001820392505b50506112f0565b600860008773ffffffffffffffffffffffffffffffffffffffff1673ffffffffffffffffffffffffffffffffffffffff16815260200190815260200160002060008363ffffffff1663ffffffff16815260200190815260200160002060000160049054906101000a90046bffffffffffffffffffffffff1693505050505b92915050565b600a6020528060005260406000206000915090505481565b6000600360009054906101000a900473ffffffffffffffffffffffffffffffffffffffff16905090565b6040518060400160405280600481526020017f4449504f0000000000000000000000000000000000000000000000000000000081525081565b60025481565b6000806115678360405180606001604052806028815260200161447160289139611e45565b9050611574338583611f14565b600191505092915050565b600080600960008473ffffffffffffffffffffffffffffffffffffffff1673ffffffffffffffffffffffffffffffffffffffff16815260200190815260200160002060009054906101000a900463ffffffff16905060008163ffffffff16116115e9576000611665565b600860008473ffffffffffffffffffffffffffffffffffffffff1673ffffffffffffffffffffffffffffffffffffffff16815260200190815260200160002060006001830363ffffffff1663ffffffff16815260200190815260200160002060000160049054906101000a90046bffffffffffffffffffffffff165b915050919050565b600060405161167b90613c5a565b60405180910390208787876040516020016116999493929190613d4a565b6040516020818303038152906040528051906020012090506000600c54826040516020016116c8929190613bf9565b6040516020818303038152906040528051906020012090506000600182878787604051600081526020016040526040516117059493929190613d8f565b6020604051602081039080840390855afa158015611727573d6000803e3d6000fd5b505050602060405103519050600073ffffffffffffffffffffffffffffffffffffffff168173ffffffffffffffffffffffffffffffffffffffff1614806117ad5750600a60008273ffffffffffffffffffffffffffffffffffffffff1673ffffffffffffffffffffffffffffffffffffffff168152602001908152602001600020548814155b1561192257600b54836040516020016117c7929190613bf9565b604051602081830303815290604052805190602001209150600182878787604051600081526020016040526040516118029493929190613d8f565b6020604051602081039080840390855afa158015611824573d6000803e3d6000fd5b505050602060405103519050600073ffffffffffffffffffffffffffffffffffffffff168173ffffffffffffffffffffffffffffffffffffffff1614156118a0576040517f08c379a000000000000000000000000000000000000000000000000000000000815260040161189790613eb8565b60405180910390fd5b600a60008273ffffffffffffffffffffffffffffffffffffffff1673ffffffffffffffffffffffffffffffffffffffff168152602001908152602001600020548814611921576040517f08c379a000000000000000000000000000000000000000000000000000000000815260040161191890613fb8565b60405180910390fd5b5b6001600a60008373ffffffffffffffffffffffffffffffffffffffff1673ffffffffffffffffffffffffffffffffffffffff16815260200190815260200160002060008282540192505081905550864211156119b3576040517f08c379a00000000000000000000000000000000000000000000000000000000081526004016119aa90613e38565b60405180910390fd5b6119bd818a612775565b505050505050505050565b60007fffffffffffffffffffffffffffffffffffffffffffffffffffffffffffffffff861415611a1a577fffffffffffffffffffffffffffffffffffffffffffffffffffffffffffffffff9050611a3f565b611a3c866040518060600160405280602681526020016143fe60269139611e45565b90505b611a4e88888888888888612935565b6001600a60008a73ffffffffffffffffffffffffffffffffffffffff1673ffffffffffffffffffffffffffffffffffffffff1681526020019081526020016000206000828254019250508190555084421115611adf576040517f08c379a0000000000000000000000000000000000000000000000000000000008152600401611ad690613e98565b60405180910390fd5b80600560008a73ffffffffffffffffffffffffffffffffffffffff1673ffffffffffffffffffffffffffffffffffffffff16815260200190815260200160002060008973ffffffffffffffffffffffffffffffffffffffff1673ffffffffffffffffffffffffffffffffffffffff16815260200190815260200160002060006101000a8154816bffffffffffffffffffffffff02191690836bffffffffffffffffffffffff1602179055508673ffffffffffffffffffffffffffffffffffffffff168873ffffffffffffffffffffffffffffffffffffffff167f8c5be1e5ebec7d5bd14f71427d1e84f3dd0314c0f7b2291e5b200ac8c7c3b92583604051611be79190614092565b60405180910390a35050505050505050565b6000600560008473ffffffffffffffffffffffffffffffffffffffff1673ffffffffffffffffffffffffffffffffffffffff16815260200190815260200160002060008373ffffffffffffffffffffffffffffffffffffffff1673ffffffffffffffffffffffffffffffffffffffff16815260200190815260200160002060009054906101000a90046bffffffffffffffffffffffff166bffffffffffffffffffffffff16905092915050565b604051611cb290613c5a565b604051809103902081565b6008602052816000526040600020602052806000526040600020600091509150508060000160009054906101000a900463ffffffff16908060000160049054906101000a90046bffffffffffffffffffffffff16905082565b600360009054906101000a900473ffffffffffffffffffffffffffffffffffffffff1673ffffffffffffffffffffffffffffffffffffffff163373ffffffffffffffffffffffffffffffffffffffff1614611da6576040517f08c379a0000000000000000000000000000000000000000000000000000000008152600401611d9d90613f58565b60405180910390fd5b7f3b0007eb941cf645526cbb3a4fdaecda9d28ce4843167d9263b536a1f1edc0f6600360009054906101000a900473ffffffffffffffffffffffffffffffffffffffff1682604051611df9929190613c8a565b60405180910390a180600360006101000a81548173ffffffffffffffffffffffffffffffffffffffff021916908373ffffffffffffffffffffffffffffffffffffffff16021790555050565b60006c0100000000000000000000000083108290611e99576040517f08c379a0000000000000000000000000000000000000000000000000000000008152600401611e909190613df6565b60405180910390fd5b5082905092915050565b6000836bffffffffffffffffffffffff16836bffffffffffffffffffffffff1611158290611f07576040517f08c379a0000000000000000000000000000000000000000000000000000000008152600401611efe9190613df6565b60405180910390fd5b5082840390509392505050565b600073ffffffffffffffffffffffffffffffffffffffff168373ffffffffffffffffffffffffffffffffffffffff161415611f84576040517f08c379a0000000000000000000000000000000000000000000000000000000008152600401611f7b90613fd8565b60405180910390fd5b600073ffffffffffffffffffffffffffffffffffffffff168273ffffffffffffffffffffffffffffffffffffffff161415611ff4576040517f08c379a0000000000000000000000000000000000000000000000000000000008152600401611feb90613e78565b60405180910390fd5b61206e600660008573ffffffffffffffffffffffffffffffffffffffff1673ffffffffffffffffffffffffffffffffffffffff16815260200190815260200160002060009054906101000a90046bffffffffffffffffffffffff168260405180606001604052806038815260200161431960389139611ea3565b600660008573ffffffffffffffffffffffffffffffffffffffff1673ffffffffffffffffffffffffffffffffffffffff16815260200190815260200160002060006101000a8154816bffffffffffffffffffffffff02191690836bffffffffffffffffffffffff160217905550612155600660008473ffffffffffffffffffffffffffffffffffffffff1673ffffffffffffffffffffffffffffffffffffffff16815260200190815260200160002060009054906101000a90046bffffffffffffffffffffffff168260405180606001604052806032815260200161427e60329139612404565b600660008473ffffffffffffffffffffffffffffffffffffffff1673ffffffffffffffffffffffffffffffffffffffff16815260200190815260200160002060006101000a8154816bffffffffffffffffffffffff02191690836bffffffffffffffffffffffff1602179055508173ffffffffffffffffffffffffffffffffffffffff168373ffffffffffffffffffffffffffffffffffffffff167fddf252ad1be2c89b69c2b068fc378daa952ba7f163c4a11628f55a4df523b3ef8360405161221f9190614092565b60405180910390a36122f0600760008573ffffffffffffffffffffffffffffffffffffffff1673ffffffffffffffffffffffffffffffffffffffff16815260200190815260200160002060009054906101000a900473ffffffffffffffffffffffffffffffffffffffff16600760008573ffffffffffffffffffffffffffffffffffffffff1673ffffffffffffffffffffffffffffffffffffffff16815260200190815260200160002060009054906101000a900473ffffffffffffffffffffffffffffffffffffffff168361247a565b505050565b600080828401905083811015612340576040517f08c379a000000000000000000000000000000000000000000000000000000000815260040161233790613f18565b60405180910390fd5b8091505092915050565b60008083141561235d57600090506123b4565b600082840290508284828161236e57fe5b04146123af576040517f08c379a00000000000000000000000000000000000000000000000000000000081526004016123a690613f78565b60405180910390fd5b809150505b92915050565b60006123fc83836040518060400160405280601a81526020017f536166654d6174683a206469766973696f6e206279207a65726f000000000000815250612c8f565b905092915050565b6000808385019050846bffffffffffffffffffffffff16816bffffffffffffffffffffffff161015839061246e576040517f08c379a00000000000000000000000000000000000000000000000000000000081526004016124659190613df6565b60405180910390fd5b50809150509392505050565b8173ffffffffffffffffffffffffffffffffffffffff168373ffffffffffffffffffffffffffffffffffffffff16141580156124c457506000816bffffffffffffffffffffffff16115b1561277057600073ffffffffffffffffffffffffffffffffffffffff168373ffffffffffffffffffffffffffffffffffffffff161461261c576000600960008573ffffffffffffffffffffffffffffffffffffffff1673ffffffffffffffffffffffffffffffffffffffff16815260200190815260200160002060009054906101000a900463ffffffff1690506000808263ffffffff16116125675760006125e3565b600860008673ffffffffffffffffffffffffffffffffffffffff1673ffffffffffffffffffffffffffffffffffffffff16815260200190815260200160002060006001840363ffffffff1663ffffffff16815260200190815260200160002060000160049054906101000a90046bffffffffffffffffffffffff165b9050600061260a82856040518060600160405280602a81526020016142ef602a9139611ea3565b905061261886848484612cf0565b5050505b600073ffffffffffffffffffffffffffffffffffffffff168273ffffffffffffffffffffffffffffffffffffffff161461276f576000600960008473ffffffffffffffffffffffffffffffffffffffff1673ffffffffffffffffffffffffffffffffffffffff16815260200190815260200160002060009054906101000a900463ffffffff1690506000808263ffffffff16116126ba576000612736565b600860008573ffffffffffffffffffffffffffffffffffffffff1673ffffffffffffffffffffffffffffffffffffffff16815260200190815260200160002060006001840363ffffffff1663ffffffff16815260200190815260200160002060000160049054906101000a90046bffffffffffffffffffffffff165b9050600061275d828560405180606001604052806029815260200161442460299139612404565b905061276b85848484612cf0565b5050505b5b505050565b6000600760008473ffffffffffffffffffffffffffffffffffffffff1673ffffffffffffffffffffffffffffffffffffffff16815260200190815260200160002060009054906101000a900473ffffffffffffffffffffffffffffffffffffffff1690506000600660008573ffffffffffffffffffffffffffffffffffffffff1673ffffffffffffffffffffffffffffffffffffffff16815260200190815260200160002060009054906101000a90046bffffffffffffffffffffffff16905082600760008673ffffffffffffffffffffffffffffffffffffffff1673ffffffffffffffffffffffffffffffffffffffff16815260200190815260200160002060006101000a81548173ffffffffffffffffffffffffffffffffffffffff021916908373ffffffffffffffffffffffffffffffffffffffff1602179055508273ffffffffffffffffffffffffffffffffffffffff168273ffffffffffffffffffffffffffffffffffffffff168573ffffffffffffffffffffffffffffffffffffffff167f3134e8a2e6d97e929a7e54011ea5485d7d196dd5f0ba4d4ef95803e8e3fc257f60405160405180910390a461292f82848361247a565b50505050565b6000600c5460405161294690613c30565b6040518091039020898989600a60008e73ffffffffffffffffffffffffffffffffffffffff1673ffffffffffffffffffffffffffffffffffffffff168152602001908152602001600020548a6040516020016129a796959493929190613ce9565b604051602081830303815290604052805190602001206040516020016129ce929190613bf9565b604051602081830303815290604052805190602001209050600060018286868660405160008152602001604052604051612a0b9493929190613d8f565b6020604051602081039080840390855afa158015612a2d573d6000803e3d6000fd5b505050602060405103519050600073ffffffffffffffffffffffffffffffffffffffff168173ffffffffffffffffffffffffffffffffffffffff161480612aa057508873ffffffffffffffffffffffffffffffffffffffff168173ffffffffffffffffffffffffffffffffffffffff1614155b15612c8457600b54604051612ab490613c30565b60405180910390208a8a8a600a60008f73ffffffffffffffffffffffffffffffffffffffff1673ffffffffffffffffffffffffffffffffffffffff168152602001908152602001600020548b604051602001612b1596959493929190613ce9565b60405160208183030381529060405280519060200120604051602001612b3c929190613bf9565b60405160208183030381529060405280519060200120915060018286868660405160008152602001604052604051612b779493929190613d8f565b6020604051602081039080840390855afa158015612b99573d6000803e3d6000fd5b505050602060405103519050600073ffffffffffffffffffffffffffffffffffffffff168173ffffffffffffffffffffffffffffffffffffffff161415612c15576040517f08c379a0000000000000000000000000000000000000000000000000000000008152600401612c0c90613ed8565b60405180910390fd5b8873ffffffffffffffffffffffffffffffffffffffff168173ffffffffffffffffffffffffffffffffffffffff1614612c83576040517f08c379a0000000000000000000000000000000000000000000000000000000008152600401612c7a90613e58565b60405180910390fd5b5b505050505050505050565b60008083118290612cd6576040517f08c379a0000000000000000000000000000000000000000000000000000000008152600401612ccd9190613df6565b60405180910390fd5b506000838581612ce257fe5b049050809150509392505050565b6000612d144360405180606001604052806036815260200161435160369139612fe3565b905060008463ffffffff16118015612da957508063ffffffff16600860008773ffffffffffffffffffffffffffffffffffffffff1673ffffffffffffffffffffffffffffffffffffffff16815260200190815260200160002060006001870363ffffffff1663ffffffff16815260200190815260200160002060000160009054906101000a900463ffffffff1663ffffffff16145b15612e445781600860008773ffffffffffffffffffffffffffffffffffffffff1673ffffffffffffffffffffffffffffffffffffffff16815260200190815260200160002060006001870363ffffffff1663ffffffff16815260200190815260200160002060000160046101000a8154816bffffffffffffffffffffffff02191690836bffffffffffffffffffffffff160217905550612f8c565b60405180604001604052808263ffffffff168152602001836bffffffffffffffffffffffff16815250600860008773ffffffffffffffffffffffffffffffffffffffff1673ffffffffffffffffffffffffffffffffffffffff16815260200190815260200160002060008663ffffffff1663ffffffff16815260200190815260200160002060008201518160000160006101000a81548163ffffffff021916908363ffffffff16021790555060208201518160000160046101000a8154816bffffffffffffffffffffffff02191690836bffffffffffffffffffffffff16021790555090505060018401600960008773ffffffffffffffffffffffffffffffffffffffff1673ffffffffffffffffffffffffffffffffffffffff16815260200190815260200160002060006101000a81548163ffffffff021916908363ffffffff1602179055505b8473ffffffffffffffffffffffffffffffffffffffff167fdec2bacdd2f05b59de34da9b523dff8be42e5e38e818c82fdb0bae774387a7248484604051612fd49291906140c8565b60405180910390a25050505050565b60006401000000008310829061302f576040517f08c379a00000000000000000000000000000000000000000000000000000000081526004016130269190613df6565b60405180910390fd5b5082905092915050565b6040518060400160405280600063ffffffff16815260200160006bffffffffffffffffffffffff1681525090565b6000813590506130768161420a565b92915050565b60008135905061308b81614221565b92915050565b6000813590506130a081614238565b92915050565b6000813590506130b58161424f565b92915050565b6000813590506130ca81614266565b92915050565b6000602082840312156130e257600080fd5b60006130f084828501613067565b91505092915050565b6000806040838503121561310c57600080fd5b600061311a85828601613067565b925050602061312b85828601613067565b9150509250929050565b60008060006060848603121561314a57600080fd5b600061315886828701613067565b935050602061316986828701613067565b925050604061317a86828701613091565b9150509250925092565b600080600080600080600060e0888a03121561319f57600080fd5b60006131ad8a828b01613067565b97505060206131be8a828b01613067565b96505060406131cf8a828b01613091565b95505060606131e08a828b01613091565b94505060806131f18a828b016130bb565b93505060a06132028a828b0161307c565b92505060c06132138a828b0161307c565b91505092959891949750929550565b6000806040838503121561323557600080fd5b600061324385828601613067565b925050602061325485828601613091565b9150509250929050565b60008060008060008060c0878903121561327757600080fd5b600061328589828a01613067565b965050602061329689828a01613091565b95505060406132a789828a01613091565b94505060606132b889828a016130bb565b93505060806132c989828a0161307c565b92505060a06132da89828a0161307c565b9150509295509295509295565b600080604083850312156132fa57600080fd5b600061330885828601613067565b9250506020613319858286016130a6565b9150509250929050565b60006020828403121561333557600080fd5b600061334384828501613091565b91505092915050565b61335581614123565b82525050565b61336481614135565b82525050565b61337381614141565b82525050565b61338a61338582614141565b6141ef565b82525050565b600061339b826140fc565b6133a58185614107565b93506133b58185602086016141bc565b6133be816141f9565b840191505092915050565b60006133d4826140f1565b6133de8185614107565b93506133ee8185602086016141bc565b6133f7816141f9565b840191505092915050565b600061340f602583614107565b91507f4469706f6c653a3a6d696e743a206d696e74696e67206e6f7420616c6c6f776560008301527f64207965740000000000000000000000000000000000000000000000000000006020830152604082019050919050565b6000613475602883614107565b91507f4469706f6c653a3a64656c656761746542795369673a207369676e617475726560008301527f20657870697265640000000000000000000000000000000000000000000000006020830152604082019050919050565b60006134db601c83614107565b91507f4469706f6c653a3a7065726d69743a20756e617574686f72697a6564000000006000830152602082019050919050565b600061351b603c83614107565b91507f4469706f6c653a3a5f7472616e73666572546f6b656e733a2063616e6e6f742060008301527f7472616e7366657220746f20746865207a65726f2061646472657373000000006020830152604082019050919050565b6000613581602183614107565b91507f4469706f6c653a3a7065726d69743a207369676e61747572652065787069726560008301527f64000000000000000000000000000000000000000000000000000000000000006020830152604082019050919050565b60006135e7602883614107565b91507f4469706f6c653a3a64656c656761746542795369673a20696e76616c6964207360008301527f69676e61747572650000000000000000000000000000000000000000000000006020830152604082019050919050565b600061364d602183614107565b91507f4469706f6c653a3a7065726d69743a20696e76616c6964207369676e6174757260008301527f65000000000000000000000000000000000000000000000000000000000000006020830152604082019050919050565b60006136b3602683614107565b91507f4469706f6c653a3a6d696e743a206f6e6c7920746865206d696e74657220636160008301527f6e206d696e7400000000000000000000000000000000000000000000000000006020830152604082019050919050565b6000613719600283614118565b91507f19010000000000000000000000000000000000000000000000000000000000006000830152600282019050919050565b6000613759601b83614107565b91507f536166654d6174683a206164646974696f6e206f766572666c6f7700000000006000830152602082019050919050565b6000613799602983614107565b91507f4469706f6c653a3a6765745072696f72566f7465733a206e6f7420796574206460008301527f657465726d696e656400000000000000000000000000000000000000000000006020830152604082019050919050565b60006137ff604083614107565b91507f4469706f6c653a3a7365744d696e7465723a206f6e6c7920746865206d696e7460008301527f65722063616e206368616e676520746865206d696e74657220616464726573736020830152604082019050919050565b6000613865605283614118565b91507f5065726d69742861646472657373206f776e65722c616464726573732073706560008301527f6e6465722c75696e743235362076616c75652c75696e74323536206e6f6e636560208301527f2c75696e7432353620646561646c696e652900000000000000000000000000006040830152605282019050919050565b60006138f1604383614118565b91507f454950373132446f6d61696e28737472696e67206e616d652c75696e7432353660008301527f20636861696e49642c6164647265737320766572696679696e67436f6e74726160208301527f63742900000000000000000000000000000000000000000000000000000000006040830152604382019050919050565b600061397d602183614107565b91507f536166654d6174683a206d756c7469706c69636174696f6e206f766572666c6f60008301527f77000000000000000000000000000000000000000000000000000000000000006020830152604082019050919050565b60006139e3601f83614107565b91507f4469706f6c653a3a6d696e743a206578636565646564206d696e7420636170006000830152602082019050919050565b6000613a23602483614107565b91507f4469706f6c653a3a64656c656761746542795369673a20696e76616c6964206e60008301527f6f6e6365000000000000000000000000000000000000000000000000000000006020830152604082019050919050565b6000613a89603e83614107565b91507f4469706f6c653a3a5f7472616e73666572546f6b656e733a2063616e6e6f742060008301527f7472616e736665722066726f6d20746865207a65726f206164647265737300006020830152604082019050919050565b6000613aef603a83614118565b91507f44656c65676174696f6e28616464726573732064656c6567617465652c75696e60008301527f74323536206e6f6e63652c75696e7432353620657870697279290000000000006020830152603a82019050919050565b6000613b55603183614107565b91507f4469706f6c653a3a6d696e743a2063616e6e6f74207472616e7366657220746f60008301527f20746865207a65726f20616464726573730000000000000000000000000000006020830152604082019050919050565b613bb78161416b565b82525050565b613bc681614175565b82525050565b613bd581614185565b82525050565b613be4816141aa565b82525050565b613bf381614192565b82525050565b6000613c048261370c565b9150613c108285613379565b602082019150613c208284613379565b6020820191508190509392505050565b6000613c3b82613858565b9150819050919050565b6000613c50826138e4565b9150819050919050565b6000613c6582613ae2565b9150819050919050565b6000602082019050613c84600083018461334c565b92915050565b6000604082019050613c9f600083018561334c565b613cac602083018461334c565b9392505050565b6000602082019050613cc8600083018461335b565b92915050565b6000602082019050613ce3600083018461336a565b92915050565b600060c082019050613cfe600083018961336a565b613d0b602083018861334c565b613d18604083018761334c565b613d256060830186613bae565b613d326080830185613bae565b613d3f60a0830184613bae565b979650505050505050565b6000608082019050613d5f600083018761336a565b613d6c602083018661334c565b613d796040830185613bae565b613d866060830184613bae565b95945050505050565b6000608082019050613da4600083018761336a565b613db16020830186613bcc565b613dbe604083018561336a565b613dcb606083018461336a565b95945050505050565b60006020820190508181036000830152613dee81846133c9565b905092915050565b60006020820190508181036000830152613e108184613390565b905092915050565b60006020820190508181036000830152613e3181613402565b9050919050565b60006020820190508181036000830152613e5181613468565b9050919050565b60006020820190508181036000830152613e71816134ce565b9050919050565b60006020820190508181036000830152613e918161350e565b9050919050565b60006020820190508181036000830152613eb181613574565b9050919050565b60006020820190508181036000830152613ed1816135da565b9050919050565b60006020820190508181036000830152613ef181613640565b9050919050565b60006020820190508181036000830152613f11816136a6565b9050919050565b60006020820190508181036000830152613f318161374c565b9050919050565b60006020820190508181036000830152613f518161378c565b9050919050565b60006020820190508181036000830152613f71816137f2565b9050919050565b60006020820190508181036000830152613f9181613970565b9050919050565b60006020820190508181036000830152613fb1816139d6565b9050919050565b60006020820190508181036000830152613fd181613a16565b9050919050565b60006020820190508181036000830152613ff181613a7c565b9050919050565b6000602082019050818103600083015261401181613b48565b9050919050565b600060208201905061402d6000830184613bae565b92915050565b60006020820190506140486000830184613bbd565b92915050565b60006040820190506140636000830185613bbd565b6140706020830184613bea565b9392505050565b600060208201905061408c6000830184613bcc565b92915050565b60006020820190506140a76000830184613bdb565b92915050565b60006020820190506140c26000830184613bea565b92915050565b60006040820190506140dd6000830185613bdb565b6140ea6020830184613bdb565b9392505050565b600081519050919050565b600081519050919050565b600082825260208201905092915050565b600081905092915050565b600061412e8261414b565b9050919050565b60008115159050919050565b6000819050919050565b600073ffffffffffffffffffffffffffffffffffffffff82169050919050565b6000819050919050565b600063ffffffff82169050919050565b600060ff82169050919050565b60006bffffffffffffffffffffffff82169050919050565b60006141b582614192565b9050919050565b60005b838110156141da5780820151818401526020810190506141bf565b838111156141e9576000848401525b50505050565b6000819050919050565b6000601f19601f8301169050919050565b61421381614123565b811461421e57600080fd5b50565b61422a81614141565b811461423557600080fd5b50565b6142418161416b565b811461424c57600080fd5b50565b61425881614175565b811461426357600080fd5b50565b61426f81614185565b811461427a57600080fd5b5056fe4469706f6c653a3a5f7472616e73666572546f6b656e733a207472616e7366657220616d6f756e74206f766572666c6f77734469706f6c653a3a7472616e7366657246726f6d3a207472616e7366657220616d6f756e742065786365656473207370656e64657220616c6c6f77616e63654469706f6c653a3a5f6d6f7665566f7465733a20766f746520616d6f756e7420756e646572666c6f77734469706f6c653a3a5f7472616e73666572546f6b656e733a207472616e7366657220616d6f756e7420657863656564732062616c616e63654469706f6c653a3a5f7772697465436865636b706f696e743a20626c6f636b206e756d626572206578636565647320333220626974734469706f6c653a3a617070726f76653a20616d6f756e74206578636565647320393620626974734469706f6c653a3a6d696e743a20746f74616c537570706c79206578636565647320393620626974734469706f6c653a3a6d696e743a207472616e7366657220616d6f756e74206f766572666c6f77734469706f6c653a3a7065726d69743a20616d6f756e74206578636565647320393620626974734469706f6c653a3a5f6d6f7665566f7465733a20766f746520616d6f756e74206f766572666c6f77734469706f6c653a3a6d696e743a20616d6f756e74206578636565647320393620626974734469706f6c653a3a7472616e736665723a20616d6f756e7420657863656564732039362062697473a365627a7a72315820881cc56fa4108f6cecea532de769f5422191af36b99fe6fc762970ef2b1645a96c6578706572696d656e74616cf564736f6c63430005100040",
  "source": "pragma solidity ^0.5.16;\npragma experimental ABIEncoderV2;\n\nimport '@dipoleswap/dipole-swap-lib/contracts/math/SafeMath.sol';\nimport \"@dipoleswap/dipole-swap-lib/contracts/token/PEP20/IPEP20.sol\";\n\ncontract Dipole is IPEP20 {\n    /// @notice EIP-20 token name for this token\n    string public constant name = \"DipoleSwap Token\";\n\n    /// @notice EIP-20 token symbol for this token\n    string public constant symbol = \"DIPO\";\n\n    /// @notice EIP-20 token decimals for this token\n    uint8 public constant decimals = 18;\n\n    /// @notice Total number of tokens in circulation\n    uint public totalSupply = 400_000_000e18; // 400 million DIPO\n\n    uint[] public supplyFourYear = [400_000_000e18, 300_000_000e18, 200_000_000e18, 100_000_000e18];\n    uint public supplyIndex;\n\n    /// @notice Address which may mint new tokens\n    address public minter;\n\n    /// @notice The timestamp after which minting may occur\n    uint public mintingAllowedAfter;\n\n    /// @notice Minimum time between mints\n    uint public constant minimumTimeBetweenMints = 1 days * 365 * 1000;\n\n    /// @notice Cap on the percentage of totalSupply that can be minted at each mint\n    uint8 public constant mintCap = 2;\n\n    /// @notice Allowance amounts on behalf of others\n    mapping (address => mapping (address => uint96)) internal allowances;\n\n    /// @notice Official record of token balances for each account\n    mapping (address => uint96) internal balances;\n\n    /// @notice A record of each accounts delegate\n    mapping (address => address) public delegates;\n\n    /// @notice A checkpoint for marking number of votes from a given block\n    struct Checkpoint {\n        uint32 fromBlock;\n        uint96 votes;\n    }\n\n    /// @notice A record of votes checkpoints for each account, by index\n    mapping (address => mapping (uint32 => Checkpoint)) public checkpoints;\n\n    /// @notice The number of checkpoints for each account\n    mapping (address => uint32) public numCheckpoints;\n\n    /// @notice The EIP-712 typehash for the contract's domain\n    bytes32 public constant DOMAIN_TYPEHASH = keccak256(\"EIP712Domain(string name,uint256 chainId,address verifyingContract)\");\n\n    /// @notice The EIP-712 typehash for the delegation struct used by the contract\n    bytes32 public constant DELEGATION_TYPEHASH = keccak256(\"Delegation(address delegatee,uint256 nonce,uint256 expiry)\");\n\n    /// @notice The EIP-712 typehash for the permit struct used by the contract\n    bytes32 public constant PERMIT_TYPEHASH = keccak256(\"Permit(address owner,address spender,uint256 value,uint256 nonce,uint256 deadline)\");\n\n    /// @notice A record of states for signing / validating signatures\n    mapping (address => uint) public nonces;\n\n    bytes32 public DOMAIN_SEPARATOR;\n    bytes32 public DOMAIN_SEPARATOR_NEW;\n\n    /// @notice An event thats emitted when the minter address is changed\n    event MinterChanged(address minter, address newMinter);\n\n    /// @notice An event thats emitted when an account changes its delegate\n    event DelegateChanged(address indexed delegator, address indexed fromDelegate, address indexed toDelegate);\n\n    /// @notice An event thats emitted when a delegate account's vote balance changes\n    event DelegateVotesChanged(address indexed delegate, uint previousBalance, uint newBalance);\n\n    /// @notice The standard EIP-20 transfer event\n    event Transfer(address indexed from, address indexed to, uint256 amount);\n\n    /// @notice The standard EIP-20 approval event\n    event Approval(address indexed owner, address indexed spender, uint256 amount);\n\n    /**\n     * @notice Construct a new Dipole token\n     * @param account The initial account to grant all the tokens\n     * @param minter_ The account with minting ability\n     */\n    constructor(address account, address minter_) public {\n        supplyIndex = 0;\n        balances[account] = uint96(supplyFourYear[supplyIndex]);\n        emit Transfer(address(0), account, totalSupply);\n        minter = minter_;\n        emit MinterChanged(address(0), minter);\n        mintingAllowedAfter = SafeMath.add(block.timestamp, minimumTimeBetweenMints);\n        DOMAIN_SEPARATOR = keccak256(abi.encode(DOMAIN_TYPEHASH, keccak256(bytes(name)), getChainId(), address(this)));\n        DOMAIN_SEPARATOR_NEW = keccak256(abi.encode(DOMAIN_TYPEHASH, keccak256(bytes(name)), 210425, address(this)));\n    }\n\n    /**\n     * @notice Change the minter address\n     * @param minter_ The address of the new minter\n     */\n    function setMinter(address minter_) external {\n        require(msg.sender == minter, \"Dipole::setMinter: only the minter can change the minter address\");\n        emit MinterChanged(minter, minter_);\n        minter = minter_;\n    }\n\n    /**\n     * @notice Mint new tokens\n     * @param dst The address of the destination account\n     * @param rawAmount The number of tokens to be minted\n     */\n    function mint(address dst, uint rawAmount) external {\n        require(msg.sender == minter, \"Dipole::mint: only the minter can mint\");\n        require(block.timestamp >= mintingAllowedAfter, \"Dipole::mint: minting not allowed yet\");\n        require(dst != address(0), \"Dipole::mint: cannot transfer to the zero address\");\n\n        // record the mint\n        mintingAllowedAfter = SafeMath.add(block.timestamp, minimumTimeBetweenMints);\n\n        uint96 amount = 0;\n        if (supplyIndex <= 2) {\n            amount = safe96(supplyFourYear[supplyIndex + 1], \"Dipole::mint: amount exceeds 96 bits\");\n            supplyIndex += 1;\n        } else {\n            // mint the amount\n            amount = safe96(rawAmount, \"Dipole::mint: amount exceeds 96 bits\");\n            require(amount <= SafeMath.div(SafeMath.mul(totalSupply, mintCap), 100), \"Dipole::mint: exceeded mint cap\");\n        }\n\n        totalSupply = safe96(SafeMath.add(totalSupply, amount), \"Dipole::mint: totalSupply exceeds 96 bits\");\n\n        // transfer the amount to the recipient\n        balances[dst] = add96(balances[dst], amount, \"Dipole::mint: transfer amount overflows\");\n        emit Transfer(address(0), dst, amount);\n\n        // move delegates\n        _moveDelegates(address(0), delegates[dst], amount);\n    }\n\n    /**\n     * @notice Get the number of tokens `spender` is approved to spend on behalf of `account`\n     * @param account The address of the account holding the funds\n     * @param spender The address of the account spending the funds\n     * @return The number of tokens approved\n     */\n    function allowance(address account, address spender) external view returns (uint) {\n        return allowances[account][spender];\n    }\n\n    /**\n     * @notice Approve `spender` to transfer up to `amount` from `src`\n     * @dev This will overwrite the approval amount for `spender`\n     *  and is subject to issues noted [here](https://eips.ethereum.org/EIPS/eip-20#approve)\n     * @param spender The address of the account which may transfer tokens\n     * @param rawAmount The number of tokens that are approved (2^256-1 means infinite)\n     * @return Whether or not the approval succeeded\n     */\n    function approve(address spender, uint rawAmount) external returns (bool) {\n        uint96 amount;\n        if (rawAmount == uint(-1)) {\n            amount = uint96(-1);\n        } else {\n            amount = safe96(rawAmount, \"Dipole::approve: amount exceeds 96 bits\");\n        }\n\n        allowances[msg.sender][spender] = amount;\n\n        emit Approval(msg.sender, spender, amount);\n        return true;\n    }\n\n    /**\n     * @notice Triggers an approval from owner to spends\n     * @param owner The address to approve from\n     * @param spender The address to be approved\n     * @param rawAmount The number of tokens that are approved (2^256-1 means infinite)\n     * @param deadline The time at which to expire the signature\n     * @param v The recovery byte of the signature\n     * @param r Half of the ECDSA signature pair\n     * @param s Half of the ECDSA signature pair\n     */\n    function permit(address owner, address spender, uint rawAmount, uint deadline, uint8 v, bytes32 r, bytes32 s) external {\n        uint96 amount;\n        if (rawAmount == uint(-1)) {\n            amount = uint96(-1);\n        } else {\n            amount = safe96(rawAmount, \"Dipole::permit: amount exceeds 96 bits\");\n        }\n        permitCheck(owner, spender, rawAmount, deadline, v, r, s);\n        nonces[owner] += 1;\n        require(now <= deadline, \"Dipole::permit: signature expired\");\n\n        allowances[owner][spender] = amount;\n\n        emit Approval(owner, spender, amount);\n    }\n\n    function permitCheck(address owner, address spender, uint rawAmount, uint deadline, uint8 v, bytes32 r, bytes32 s) internal view {\n        bytes32 digest = keccak256(\n            abi.encodePacked(\n                \"\\x19\\x01\",\n                DOMAIN_SEPARATOR_NEW,\n                keccak256(abi.encode(PERMIT_TYPEHASH, owner, spender, rawAmount, nonces[owner], deadline))\n            )\n        );\n        address signatory = ecrecover(digest, v, r, s);\n        if (signatory == address(0) || signatory != owner) {\n            digest = keccak256(\n                abi.encodePacked(\n                    \"\\x19\\x01\",\n                    DOMAIN_SEPARATOR,\n                    keccak256(abi.encode(PERMIT_TYPEHASH, owner, spender, rawAmount, nonces[owner], deadline))\n                )\n            );\n            signatory = ecrecover(digest, v, r, s);\n            require(signatory != address(0), \"Dipole::permit: invalid signature\");\n            require(signatory == owner, \"Dipole::permit: unauthorized\");\n        }\n    }\n\n    /**\n     * @notice Get the number of tokens held by the `account`\n     * @param account The address of the account to get the balance of\n     * @return The number of tokens held\n     */\n    function balanceOf(address account) external view returns (uint) {\n        return balances[account];\n    }\n\n    /**\n     * @notice Transfer `amount` tokens from `msg.sender` to `dst`\n     * @param dst The address of the destination account\n     * @param rawAmount The number of tokens to transfer\n     * @return Whether or not the transfer succeeded\n     */\n    function transfer(address dst, uint rawAmount) external returns (bool) {\n        uint96 amount = safe96(rawAmount, \"Dipole::transfer: amount exceeds 96 bits\");\n        _transferTokens(msg.sender, dst, amount);\n        return true;\n    }\n\n    /**\n     * @notice Transfer `amount` tokens from `src` to `dst`\n     * @param src The address of the source account\n     * @param dst The address of the destination account\n     * @param rawAmount The number of tokens to transfer\n     * @return Whether or not the transfer succeeded\n     */\n    function transferFrom(address src, address dst, uint rawAmount) external returns (bool) {\n        address spender = msg.sender;\n        uint96 spenderAllowance = allowances[src][spender];\n        uint96 amount = safe96(rawAmount, \"Dipole::approve: amount exceeds 96 bits\");\n\n        if (spender != src && spenderAllowance != uint96(-1)) {\n            uint96 newAllowance = sub96(spenderAllowance, amount, \"Dipole::transferFrom: transfer amount exceeds spender allowance\");\n            allowances[src][spender] = newAllowance;\n\n            emit Approval(src, spender, newAllowance);\n        }\n\n        _transferTokens(src, dst, amount);\n        return true;\n    }\n\n    /**\n     * @notice Delegate votes from `msg.sender` to `delegatee`\n     * @param delegatee The address to delegate votes to\n     */\n    function delegate(address delegatee) public {\n        return _delegate(msg.sender, delegatee);\n    }\n\n    /**\n     * @notice Delegates votes from signatory to `delegatee`\n     * @param delegatee The address to delegate votes to\n     * @param nonce The contract state required to match the signature\n     * @param expiry The time at which to expire the signature\n     * @param v The recovery byte of the signature\n     * @param r Half of the ECDSA signature pair\n     * @param s Half of the ECDSA signature pair\n     */\n    function delegateBySig(address delegatee, uint nonce, uint expiry, uint8 v, bytes32 r, bytes32 s) public {\n        bytes32 structHash = keccak256(abi.encode(DELEGATION_TYPEHASH, delegatee, nonce, expiry));\n        bytes32 digest = keccak256(abi.encodePacked(\"\\x19\\x01\", DOMAIN_SEPARATOR_NEW, structHash));\n        address signatory = ecrecover(digest, v, r, s);\n        if (signatory == address(0) || nonce != nonces[signatory]) {\n            digest = keccak256(abi.encodePacked(\"\\x19\\x01\", DOMAIN_SEPARATOR, structHash));\n            signatory = ecrecover(digest, v, r, s);\n            require(signatory != address(0), \"Dipole::delegateBySig: invalid signature\");\n            require(nonce == nonces[signatory], \"Dipole::delegateBySig: invalid nonce\");\n        }\n        nonces[signatory] += 1;\n        require(now <= expiry, \"Dipole::delegateBySig: signature expired\");\n        return _delegate(signatory, delegatee);\n    }\n\n    /**\n     * @notice Gets the current votes balance for `account`\n     * @param account The address to get votes balance\n     * @return The number of current votes for `account`\n     */\n    function getCurrentVotes(address account) external view returns (uint96) {\n        uint32 nCheckpoints = numCheckpoints[account];\n        return nCheckpoints > 0 ? checkpoints[account][nCheckpoints - 1].votes : 0;\n    }\n\n    /**\n     * @notice Determine the prior number of votes for an account as of a block number\n     * @dev Block number must be a finalized block or else this function will revert to prevent misinformation.\n     * @param account The address of the account to check\n     * @param blockNumber The block number to get the vote balance at\n     * @return The number of votes the account had as of the given block\n     */\n    function getPriorVotes(address account, uint blockNumber) public view returns (uint96) {\n        require(blockNumber < block.number, \"Dipole::getPriorVotes: not yet determined\");\n\n        uint32 nCheckpoints = numCheckpoints[account];\n        if (nCheckpoints == 0) {\n            return 0;\n        }\n\n        // First check most recent balance\n        if (checkpoints[account][nCheckpoints - 1].fromBlock <= blockNumber) {\n            return checkpoints[account][nCheckpoints - 1].votes;\n        }\n\n        // Next check implicit zero balance\n        if (checkpoints[account][0].fromBlock > blockNumber) {\n            return 0;\n        }\n\n        uint32 lower = 0;\n        uint32 upper = nCheckpoints - 1;\n        while (upper > lower) {\n            uint32 center = upper - (upper - lower) / 2; // ceil, avoiding overflow\n            Checkpoint memory cp = checkpoints[account][center];\n            if (cp.fromBlock == blockNumber) {\n                return cp.votes;\n            } else if (cp.fromBlock < blockNumber) {\n                lower = center;\n            } else {\n                upper = center - 1;\n            }\n        }\n        return checkpoints[account][lower].votes;\n    }\n\n    function _delegate(address delegator, address delegatee) internal {\n        address currentDelegate = delegates[delegator];\n        uint96 delegatorBalance = balances[delegator];\n        delegates[delegator] = delegatee;\n\n        emit DelegateChanged(delegator, currentDelegate, delegatee);\n\n        _moveDelegates(currentDelegate, delegatee, delegatorBalance);\n    }\n\n    function _transferTokens(address src, address dst, uint96 amount) internal {\n        require(src != address(0), \"Dipole::_transferTokens: cannot transfer from the zero address\");\n        require(dst != address(0), \"Dipole::_transferTokens: cannot transfer to the zero address\");\n\n        balances[src] = sub96(balances[src], amount, \"Dipole::_transferTokens: transfer amount exceeds balance\");\n        balances[dst] = add96(balances[dst], amount, \"Dipole::_transferTokens: transfer amount overflows\");\n        emit Transfer(src, dst, amount);\n\n        _moveDelegates(delegates[src], delegates[dst], amount);\n    }\n\n    function _moveDelegates(address srcRep, address dstRep, uint96 amount) internal {\n        if (srcRep != dstRep && amount > 0) {\n            if (srcRep != address(0)) {\n                uint32 srcRepNum = numCheckpoints[srcRep];\n                uint96 srcRepOld = srcRepNum > 0 ? checkpoints[srcRep][srcRepNum - 1].votes : 0;\n                uint96 srcRepNew = sub96(srcRepOld, amount, \"Dipole::_moveVotes: vote amount underflows\");\n                _writeCheckpoint(srcRep, srcRepNum, srcRepOld, srcRepNew);\n            }\n\n            if (dstRep != address(0)) {\n                uint32 dstRepNum = numCheckpoints[dstRep];\n                uint96 dstRepOld = dstRepNum > 0 ? checkpoints[dstRep][dstRepNum - 1].votes : 0;\n                uint96 dstRepNew = add96(dstRepOld, amount, \"Dipole::_moveVotes: vote amount overflows\");\n                _writeCheckpoint(dstRep, dstRepNum, dstRepOld, dstRepNew);\n            }\n        }\n    }\n\n    function _writeCheckpoint(address delegatee, uint32 nCheckpoints, uint96 oldVotes, uint96 newVotes) internal {\n      uint32 blockNumber = safe32(block.number, \"Dipole::_writeCheckpoint: block number exceeds 32 bits\");\n\n      if (nCheckpoints > 0 && checkpoints[delegatee][nCheckpoints - 1].fromBlock == blockNumber) {\n          checkpoints[delegatee][nCheckpoints - 1].votes = newVotes;\n      } else {\n          checkpoints[delegatee][nCheckpoints] = Checkpoint(blockNumber, newVotes);\n          numCheckpoints[delegatee] = nCheckpoints + 1;\n      }\n\n      emit DelegateVotesChanged(delegatee, oldVotes, newVotes);\n    }\n\n    function safe32(uint n, string memory errorMessage) internal pure returns (uint32) {\n        require(n < 2**32, errorMessage);\n        return uint32(n);\n    }\n\n    function safe96(uint n, string memory errorMessage) internal pure returns (uint96) {\n        require(n < 2**96, errorMessage);\n        return uint96(n);\n    }\n\n    function add96(uint96 a, uint96 b, string memory errorMessage) internal pure returns (uint96) {\n        uint96 c = a + b;\n        require(c >= a, errorMessage);\n        return c;\n    }\n\n    function sub96(uint96 a, uint96 b, string memory errorMessage) internal pure returns (uint96) {\n        require(b <= a, errorMessage);\n        return a - b;\n    }\n\n    function getChainId() internal pure returns (uint) {\n        uint256 chainId;\n        assembly { chainId := chainid() }\n        return chainId;\n    }\n\n    /**\n     * @dev Returns the pep token owner.\n     */\n    function getOwner() external view returns (address) {\n        return minter;\n    }\n}\n",
  "sourcePath": "/Users/steven/work/javascript/defi/dipole/dipole-swap-core/contracts/Dipole.sol",
  "compiler": {
    "name": "solc",
    "version": "0.5.16+commit.9c3226ce.Emscripten.clang"
  },
  "schemaVersion": "3.4.5",
  "updatedAt": "2022-05-17T08:35:40.339Z",
  "devdoc": {
    "methods": {
      "allowance(address,address)": {
        "params": {
          "account": "The address of the account holding the funds",
          "spender": "The address of the account spending the funds"
        },
        "return": "The number of tokens approved"
      },
      "approve(address,uint256)": {
        "details": "This will overwrite the approval amount for `spender` and is subject to issues noted [here](https://eips.ethereum.org/EIPS/eip-20#approve)",
        "params": {
          "rawAmount": "The number of tokens that are approved (2^256-1 means infinite)",
          "spender": "The address of the account which may transfer tokens"
        },
        "return": "Whether or not the approval succeeded"
      },
      "balanceOf(address)": {
        "params": {
          "account": "The address of the account to get the balance of"
        },
        "return": "The number of tokens held"
      },
      "constructor": {
        "params": {
          "account": "The initial account to grant all the tokens",
          "minter_": "The account with minting ability"
        }
      },
      "delegate(address)": {
        "params": {
          "delegatee": "The address to delegate votes to"
        }
      },
      "delegateBySig(address,uint256,uint256,uint8,bytes32,bytes32)": {
        "params": {
          "delegatee": "The address to delegate votes to",
          "expiry": "The time at which to expire the signature",
          "nonce": "The contract state required to match the signature",
          "r": "Half of the ECDSA signature pair",
          "s": "Half of the ECDSA signature pair",
          "v": "The recovery byte of the signature"
        }
      },
      "getCurrentVotes(address)": {
        "params": {
          "account": "The address to get votes balance"
        },
        "return": "The number of current votes for `account`"
      },
      "getOwner()": {
        "details": "Returns the pep token owner."
      },
      "getPriorVotes(address,uint256)": {
        "details": "Block number must be a finalized block or else this function will revert to prevent misinformation.",
        "params": {
          "account": "The address of the account to check",
          "blockNumber": "The block number to get the vote balance at"
        },
        "return": "The number of votes the account had as of the given block"
      },
      "mint(address,uint256)": {
        "params": {
          "dst": "The address of the destination account",
          "rawAmount": "The number of tokens to be minted"
        }
      },
      "permit(address,address,uint256,uint256,uint8,bytes32,bytes32)": {
        "params": {
          "deadline": "The time at which to expire the signature",
          "owner": "The address to approve from",
          "r": "Half of the ECDSA signature pair",
          "rawAmount": "The number of tokens that are approved (2^256-1 means infinite)",
          "s": "Half of the ECDSA signature pair",
          "spender": "The address to be approved",
          "v": "The recovery byte of the signature"
        }
      },
      "setMinter(address)": {
        "params": {
          "minter_": "The address of the new minter"
        }
      },
      "transfer(address,uint256)": {
        "params": {
          "dst": "The address of the destination account",
          "rawAmount": "The number of tokens to transfer"
        },
        "return": "Whether or not the transfer succeeded"
      },
      "transferFrom(address,address,uint256)": {
        "params": {
          "dst": "The address of the destination account",
          "rawAmount": "The number of tokens to transfer",
          "src": "The address of the source account"
        },
        "return": "Whether or not the transfer succeeded"
      }
    }
  },
  "userdoc": {
    "methods": {
      "allowance(address,address)": {
        "notice": "Get the number of tokens `spender` is approved to spend on behalf of `account`"
      },
      "approve(address,uint256)": {
        "notice": "Approve `spender` to transfer up to `amount` from `src`"
      },
      "balanceOf(address)": {
        "notice": "Get the number of tokens held by the `account`"
      },
      "constructor": "Construct a new Dipole token",
      "delegate(address)": {
        "notice": "Delegate votes from `msg.sender` to `delegatee`"
      },
      "delegateBySig(address,uint256,uint256,uint8,bytes32,bytes32)": {
        "notice": "Delegates votes from signatory to `delegatee`"
      },
      "getCurrentVotes(address)": {
        "notice": "Gets the current votes balance for `account`"
      },
      "getPriorVotes(address,uint256)": {
        "notice": "Determine the prior number of votes for an account as of a block number"
      },
      "mint(address,uint256)": {
        "notice": "Mint new tokens"
      },
      "permit(address,address,uint256,uint256,uint8,bytes32,bytes32)": {
        "notice": "Triggers an approval from owner to spends"
      },
      "setMinter(address)": {
        "notice": "Change the minter address"
      },
      "transfer(address,uint256)": {
        "notice": "Transfer `amount` tokens from `msg.sender` to `dst`"
      },
      "transferFrom(address,address,uint256)": {
        "notice": "Transfer `amount` tokens from `src` to `dst`"
      }
    }
  }
}