{
  "contractName": "Multicall2",
  "abi": [
    {
      "inputs": [
        {
          "components": [
            {
              "internalType": "address",
              "name": "target",
              "type": "address"
            },
            {
              "internalType": "bytes",
              "name": "callData",
              "type": "bytes"
            }
          ],
          "internalType": "struct Multicall2.Call[]",
          "name": "calls",
          "type": "tuple[]"
        }
      ],
      "name": "aggregate",
      "outputs": [
        {
          "internalType": "uint256",
          "name": "blockNumber",
          "type": "uint256"
        },
        {
          "internalType": "bytes[]",
          "name": "returnData",
          "type": "bytes[]"
        }
      ],
      "stateMutability": "nonpayable",
      "type": "function"
    },
    {
      "inputs": [
        {
          "components": [
            {
              "internalType": "address",
              "name": "target",
              "type": "address"
            },
            {
              "internalType": "bytes",
              "name": "callData",
              "type": "bytes"
            }
          ],
          "internalType": "struct Multicall2.Call[]",
          "name": "calls",
          "type": "tuple[]"
        }
      ],
      "name": "blockAndAggregate",
      "outputs": [
        {
          "internalType": "uint256",
          "name": "blockNumber",
          "type": "uint256"
        },
        {
          "internalType": "bytes32",
          "name": "blockHash",
          "type": "bytes32"
        },
        {
          "components": [
            {
              "internalType": "bool",
              "name": "success",
              "type": "bool"
            },
            {
              "internalType": "bytes",
              "name": "returnData",
              "type": "bytes"
            }
          ],
          "internalType": "struct Multicall2.Result[]",
          "name": "returnData",
          "type": "tuple[]"
        }
      ],
      "stateMutability": "nonpayable",
      "type": "function"
    },
    {
      "inputs": [
        {
          "internalType": "uint256",
          "name": "blockNumber",
          "type": "uint256"
        }
      ],
      "name": "getBlockHash",
      "outputs": [
        {
          "internalType": "bytes32",
          "name": "blockHash",
          "type": "bytes32"
        }
      ],
      "stateMutability": "view",
      "type": "function"
    },
    {
      "inputs": [],
      "name": "getBlockNumber",
      "outputs": [
        {
          "internalType": "uint256",
          "name": "blockNumber",
          "type": "uint256"
        }
      ],
      "stateMutability": "view",
      "type": "function"
    },
    {
      "inputs": [],
      "name": "getCurrentBlockCoinbase",
      "outputs": [
        {
          "internalType": "address",
          "name": "coinbase",
          "type": "address"
        }
      ],
      "stateMutability": "view",
      "type": "function"
    },
    {
      "inputs": [],
      "name": "getCurrentBlockDifficulty",
      "outputs": [
        {
          "internalType": "uint256",
          "name": "difficulty",
          "type": "uint256"
        }
      ],
      "stateMutability": "view",
      "type": "function"
    },
    {
      "inputs": [],
      "name": "getCurrentBlockGasLimit",
      "outputs": [
        {
          "internalType": "uint256",
          "name": "gaslimit",
          "type": "uint256"
        }
      ],
      "stateMutability": "view",
      "type": "function"
    },
    {
      "inputs": [],
      "name": "getCurrentBlockTimestamp",
      "outputs": [
        {
          "internalType": "uint256",
          "name": "timestamp",
          "type": "uint256"
        }
      ],
      "stateMutability": "view",
      "type": "function"
    },
    {
      "inputs": [
        {
          "internalType": "address",
          "name": "addr",
          "type": "address"
        }
      ],
      "name": "getEthBalance",
      "outputs": [
        {
          "internalType": "uint256",
          "name": "balance",
          "type": "uint256"
        }
      ],
      "stateMutability": "view",
      "type": "function"
    },
    {
      "inputs": [],
      "name": "getLastBlockHash",
      "outputs": [
        {
          "internalType": "bytes32",
          "name": "blockHash",
          "type": "bytes32"
        }
      ],
      "stateMutability": "view",
      "type": "function"
    },
    {
      "inputs": [
        {
          "internalType": "bool",
          "name": "requireSuccess",
          "type": "bool"
        },
        {
          "components": [
            {
              "internalType": "address",
              "name": "target",
              "type": "address"
            },
            {
              "internalType": "bytes",
              "name": "callData",
              "type": "bytes"
            }
          ],
          "internalType": "struct Multicall2.Call[]",
          "name": "calls",
          "type": "tuple[]"
        }
      ],
      "name": "tryAggregate",
      "outputs": [
        {
          "components": [
            {
              "internalType": "bool",
              "name": "success",
              "type": "bool"
            },
            {
              "internalType": "bytes",
              "name": "returnData",
              "type": "bytes"
            }
          ],
          "internalType": "struct Multicall2.Result[]",
          "name": "returnData",
          "type": "tuple[]"
        }
      ],
      "stateMutability": "nonpayable",
      "type": "function"
    },
    {
      "inputs": [
        {
          "internalType": "bool",
          "name": "requireSuccess",
          "type": "bool"
        },
        {
          "components": [
            {
              "internalType": "address",
              "name": "target",
              "type": "address"
            },
            {
              "internalType": "bytes",
              "name": "callData",
              "type": "bytes"
            }
          ],
          "internalType": "struct Multicall2.Call[]",
          "name": "calls",
          "type": "tuple[]"
        }
      ],
      "name": "tryBlockAndAggregate",
      "outputs": [
        {
          "internalType": "uint256",
          "name": "blockNumber",
          "type": "uint256"
        },
        {
          "internalType": "bytes32",
          "name": "blockHash",
          "type": "bytes32"
        },
        {
          "components": [
            {
              "internalType": "bool",
              "name": "success",
              "type": "bool"
            },
            {
              "internalType": "bytes",
              "name": "returnData",
              "type": "bytes"
            }
          ],
          "internalType": "struct Multicall2.Result[]",
          "name": "returnData",
          "type": "tuple[]"
        }
      ],
      "stateMutability": "nonpayable",
      "type": "function"
    }
  ],
  "bytecode": "0x608060405234801561001057600080fd5b50610eb9806100206000396000f3fe608060405234801561001057600080fd5b50600436106100b45760003560e01c806372425d9d1161007157806372425d9d146101a657806386d516e8146101c4578063a8b0574e146101e2578063bce38bd714610200578063c3077fa914610230578063ee82ac5e14610262576100b4565b80630f28c97d146100b9578063252dba42146100d757806327e86d6e14610108578063399542e91461012657806342cbb15c146101585780634d2301cc14610176575b600080fd5b6100c1610292565b6040516100ce9190610be5565b60405180910390f35b6100f160048036038101906100ec91906107dd565b61029a565b6040516100ff929190610c00565b60405180910390f35b610110610407565b60405161011d9190610b8a565b60405180910390f35b610140600480360381019061013b919061081e565b610413565b60405161014f93929190610c30565b60405180910390f35b610160610432565b60405161016d9190610be5565b60405180910390f35b610190600480360381019061018b91906107b4565b61043a565b60405161019d9190610be5565b60405180910390f35b6101ae61045b565b6040516101bb9190610be5565b60405180910390f35b6101cc610463565b6040516101d99190610be5565b60405180910390f35b6101ea61046b565b6040516101f79190610b4d565b60405180910390f35b61021a6004803603810190610215919061081e565b610473565b6040516102279190610b68565b60405180910390f35b61024a600480360381019061024591906107dd565b6105ff565b60405161025993929190610c30565b60405180910390f35b61027c60048036038101906102779190610872565b610622565b6040516102899190610b8a565b60405180910390f35b600042905090565b60006060439150825167ffffffffffffffff811180156102b957600080fd5b506040519080825280602002602001820160405280156102ed57816020015b60608152602001906001900390816102d85790505b50905060005b8351811015610401576000606085838151811061030c57fe5b60200260200101516000015173ffffffffffffffffffffffffffffffffffffffff1686848151811061033a57fe5b6020026020010151602001516040516103539190610b36565b6000604051808303816000865af19150503d8060008114610390576040519150601f19603f3d011682016040523d82523d6000602084013e610395565b606091505b5091509150816103da576040517f08c379a00000000000000000000000000000000000000000000000000000000081526004016103d190610bc5565b60405180910390fd5b808484815181106103e757fe5b6020026020010181905250505080806001019150506102f3565b50915091565b60006001430340905090565b6000806060439250434091506104298585610473565b90509250925092565b600043905090565b60008173ffffffffffffffffffffffffffffffffffffffff16319050919050565b600044905090565b600045905090565b600041905090565b6060815167ffffffffffffffff8111801561048d57600080fd5b506040519080825280602002602001820160405280156104c757816020015b6104b461062d565b8152602001906001900390816104ac5790505b50905060005b82518110156105f857600060608483815181106104e657fe5b60200260200101516000015173ffffffffffffffffffffffffffffffffffffffff1685848151811061051457fe5b60200260200101516020015160405161052d9190610b36565b6000604051808303816000865af19150503d806000811461056a576040519150601f19603f3d011682016040523d82523d6000602084013e61056f565b606091505b509150915085156105bb57816105ba576040517f08c379a00000000000000000000000000000000000000000000000000000000081526004016105b190610ba5565b60405180910390fd5b5b60405180604001604052808315158152602001828152508484815181106105de57fe5b6020026020010181905250505080806001019150506104cd565b5092915050565b600080606061060f600185610413565b8093508194508295505050509193909250565b600081409050919050565b6040518060400160405280600015158152602001606081525090565b60008135905061065881610e3e565b92915050565b600082601f83011261066f57600080fd5b813561068261067d82610c9b565b610c6e565b9150818183526020840193506020810190508360005b838110156106c857813586016106ae888261073b565b845260208401935060208301925050600181019050610698565b5050505092915050565b6000813590506106e181610e55565b92915050565b600082601f8301126106f857600080fd5b813561070b61070682610cc3565b610c6e565b9150808252602083016020830185838301111561072757600080fd5b610732838284610deb565b50505092915050565b60006040828403121561074d57600080fd5b6107576040610c6e565b9050600061076784828501610649565b600083015250602082013567ffffffffffffffff81111561078757600080fd5b610793848285016106e7565b60208301525092915050565b6000813590506107ae81610e6c565b92915050565b6000602082840312156107c657600080fd5b60006107d484828501610649565b91505092915050565b6000602082840312156107ef57600080fd5b600082013567ffffffffffffffff81111561080957600080fd5b6108158482850161065e565b91505092915050565b6000806040838503121561083157600080fd5b600061083f858286016106d2565b925050602083013567ffffffffffffffff81111561085c57600080fd5b6108688582860161065e565b9150509250929050565b60006020828403121561088457600080fd5b60006108928482850161079f565b91505092915050565b60006108a783836109da565b905092915050565b60006108bb8383610aea565b905092915050565b6108cc81610d99565b82525050565b60006108dd82610d0f565b6108e78185610d4a565b9350836020820285016108f985610cef565b8060005b858110156109355784840389528151610916858261089b565b945061092183610d30565b925060208a019950506001810190506108fd565b50829750879550505050505092915050565b600061095282610d1a565b61095c8185610d5b565b93508360208202850161096e85610cff565b8060005b858110156109aa578484038952815161098b85826108af565b945061099683610d3d565b925060208a01995050600181019050610972565b50829750879550505050505092915050565b6109c581610dab565b82525050565b6109d481610db7565b82525050565b60006109e582610d25565b6109ef8185610d6c565b93506109ff818560208601610dfa565b610a0881610e2d565b840191505092915050565b6000610a1e82610d25565b610a288185610d7d565b9350610a38818560208601610dfa565b80840191505092915050565b6000610a51602183610d88565b91507f4d756c746963616c6c32206167677265676174653a2063616c6c206661696c6560008301527f64000000000000000000000000000000000000000000000000000000000000006020830152604082019050919050565b6000610ab7602083610d88565b91507f4d756c746963616c6c206167677265676174653a2063616c6c206661696c65646000830152602082019050919050565b6000604083016000830151610b0260008601826109bc565b5060208301518482036020860152610b1a82826109da565b9150508091505092915050565b610b3081610de1565b82525050565b6000610b428284610a13565b915081905092915050565b6000602082019050610b6260008301846108c3565b92915050565b60006020820190508181036000830152610b828184610947565b905092915050565b6000602082019050610b9f60008301846109cb565b92915050565b60006020820190508181036000830152610bbe81610a44565b9050919050565b60006020820190508181036000830152610bde81610aaa565b9050919050565b6000602082019050610bfa6000830184610b27565b92915050565b6000604082019050610c156000830185610b27565b8181036020830152610c2781846108d2565b90509392505050565b6000606082019050610c456000830186610b27565b610c5260208301856109cb565b8181036040830152610c648184610947565b9050949350505050565b6000604051905081810181811067ffffffffffffffff82111715610c9157600080fd5b8060405250919050565b600067ffffffffffffffff821115610cb257600080fd5b602082029050602081019050919050565b600067ffffffffffffffff821115610cda57600080fd5b601f19601f8301169050602081019050919050565b6000819050602082019050919050565b6000819050602082019050919050565b600081519050919050565b600081519050919050565b600081519050919050565b6000602082019050919050565b6000602082019050919050565b600082825260208201905092915050565b600082825260208201905092915050565b600082825260208201905092915050565b600081905092915050565b600082825260208201905092915050565b6000610da482610dc1565b9050919050565b60008115159050919050565b6000819050919050565b600073ffffffffffffffffffffffffffffffffffffffff82169050919050565b6000819050919050565b82818337600083830152505050565b60005b83811015610e18578082015181840152602081019050610dfd565b83811115610e27576000848401525b50505050565b6000601f19601f8301169050919050565b610e4781610d99565b8114610e5257600080fd5b50565b610e5e81610dab565b8114610e6957600080fd5b50565b610e7581610de1565b8114610e8057600080fd5b5056fea2646970667358221220bb9ee8bd9f774c790818f6b544516acc2d2aaac7ff077a32ec305acbbe906b3764736f6c634300060c0033",
  "immutableReferences": {},
  "source": "/**\n *Submitted for verification at BscScan.com on 2021-05-05\n*/\n\npragma solidity >=0.5.0;\npragma experimental ABIEncoderV2;\n\n\n/// @title Multicall2 - Aggregate results from multiple read-only function calls\n/// @author Michael Elliot <mike@makerdao.com>\n/// @author Joshua Levine <joshua@makerdao.com>\n/// @author Nick Johnson <arachnid@notdot.net>\n\ncontract Multicall2 {\n    struct Call {\n        address target;\n        bytes callData;\n    }\n    struct Result {\n        bool success;\n        bytes returnData;\n    }\n\n    function aggregate(Call[] memory calls) public returns (uint256 blockNumber, bytes[] memory returnData) {\n        blockNumber = block.number;\n        returnData = new bytes[](calls.length);\n        for(uint256 i = 0; i < calls.length; i++) {\n            (bool success, bytes memory ret) = calls[i].target.call(calls[i].callData);\n            require(success, \"Multicall aggregate: call failed\");\n            returnData[i] = ret;\n        }\n    }\n    function blockAndAggregate(Call[] memory calls) public returns (uint256 blockNumber, bytes32 blockHash, Result[] memory returnData) {\n        (blockNumber, blockHash, returnData) = tryBlockAndAggregate(true, calls);\n    }\n    function getBlockHash(uint256 blockNumber) public view returns (bytes32 blockHash) {\n        blockHash = blockhash(blockNumber);\n    }\n    function getBlockNumber() public view returns (uint256 blockNumber) {\n        blockNumber = block.number;\n    }\n    function getCurrentBlockCoinbase() public view returns (address coinbase) {\n        coinbase = block.coinbase;\n    }\n    function getCurrentBlockDifficulty() public view returns (uint256 difficulty) {\n        difficulty = block.difficulty;\n    }\n    function getCurrentBlockGasLimit() public view returns (uint256 gaslimit) {\n        gaslimit = block.gaslimit;\n    }\n    function getCurrentBlockTimestamp() public view returns (uint256 timestamp) {\n        timestamp = block.timestamp;\n    }\n    function getEthBalance(address addr) public view returns (uint256 balance) {\n        balance = addr.balance;\n    }\n    function getLastBlockHash() public view returns (bytes32 blockHash) {\n        blockHash = blockhash(block.number - 1);\n    }\n    function tryAggregate(bool requireSuccess, Call[] memory calls) public returns (Result[] memory returnData) {\n        returnData = new Result[](calls.length);\n        for(uint256 i = 0; i < calls.length; i++) {\n            (bool success, bytes memory ret) = calls[i].target.call(calls[i].callData);\n\n            if (requireSuccess) {\n                require(success, \"Multicall2 aggregate: call failed\");\n            }\n\n            returnData[i] = Result(success, ret);\n        }\n    }\n    function tryBlockAndAggregate(bool requireSuccess, Call[] memory calls) public returns (uint256 blockNumber, bytes32 blockHash, Result[] memory returnData) {\n        blockNumber = block.number;\n        blockHash = blockhash(block.number);\n        returnData = tryAggregate(requireSuccess, calls);\n    }\n}",
  "sourcePath": "/Users/steven/work/javascript/defi/dipole/dipole-farm/contracts/libs/Multicall.sol",
  "compiler": {
    "name": "solc",
    "version": "0.6.12+commit.27d51765.Emscripten.clang"
  },
  "schemaVersion": "3.4.5",
  "updatedAt": "2022-03-14T09:15:14.901Z",
  "devdoc": {
    "author": "Michael Elliot <mike@makerdao.com>Joshua Levine <joshua@makerdao.com>Nick Johnson <arachnid@notdot.net>",
    "kind": "dev",
    "methods": {},
    "title": "Multicall2 - Aggregate results from multiple read-only function calls",
    "version": 1
  },
  "userdoc": {
    "kind": "user",
    "methods": {},
    "version": 1
  }
}