{
  "contractName": "SmartChefInitializable",
  "abi": [
    {
      "inputs": [],
      "stateMutability": "nonpayable",
      "type": "constructor"
    },
    {
      "anonymous": false,
      "inputs": [
        {
          "indexed": false,
          "internalType": "address",
          "name": "tokenRecovered",
          "type": "address"
        },
        {
          "indexed": false,
          "internalType": "uint256",
          "name": "amount",
          "type": "uint256"
        }
      ],
      "name": "AdminTokenRecovery",
      "type": "event"
    },
    {
      "anonymous": false,
      "inputs": [
        {
          "indexed": true,
          "internalType": "address",
          "name": "user",
          "type": "address"
        },
        {
          "indexed": false,
          "internalType": "uint256",
          "name": "amount",
          "type": "uint256"
        }
      ],
      "name": "Deposit",
      "type": "event"
    },
    {
      "anonymous": false,
      "inputs": [
        {
          "indexed": true,
          "internalType": "address",
          "name": "user",
          "type": "address"
        },
        {
          "indexed": false,
          "internalType": "uint256",
          "name": "amount",
          "type": "uint256"
        }
      ],
      "name": "EmergencyWithdraw",
      "type": "event"
    },
    {
      "anonymous": false,
      "inputs": [
        {
          "indexed": false,
          "internalType": "uint256",
          "name": "poolLimitPerUser",
          "type": "uint256"
        }
      ],
      "name": "NewPoolLimit",
      "type": "event"
    },
    {
      "anonymous": false,
      "inputs": [
        {
          "indexed": false,
          "internalType": "uint256",
          "name": "rewardPerBlock",
          "type": "uint256"
        }
      ],
      "name": "NewRewardPerBlock",
      "type": "event"
    },
    {
      "anonymous": false,
      "inputs": [
        {
          "indexed": false,
          "internalType": "uint256",
          "name": "startBlock",
          "type": "uint256"
        },
        {
          "indexed": false,
          "internalType": "uint256",
          "name": "endBlock",
          "type": "uint256"
        }
      ],
      "name": "NewStartAndEndBlocks",
      "type": "event"
    },
    {
      "anonymous": false,
      "inputs": [
        {
          "indexed": true,
          "internalType": "address",
          "name": "previousOwner",
          "type": "address"
        },
        {
          "indexed": true,
          "internalType": "address",
          "name": "newOwner",
          "type": "address"
        }
      ],
      "name": "OwnershipTransferred",
      "type": "event"
    },
    {
      "anonymous": false,
      "inputs": [
        {
          "indexed": false,
          "internalType": "uint256",
          "name": "blockNumber",
          "type": "uint256"
        }
      ],
      "name": "RewardsStop",
      "type": "event"
    },
    {
      "anonymous": false,
      "inputs": [
        {
          "indexed": true,
          "internalType": "address",
          "name": "user",
          "type": "address"
        },
        {
          "indexed": false,
          "internalType": "uint256",
          "name": "amount",
          "type": "uint256"
        }
      ],
      "name": "Withdraw",
      "type": "event"
    },
    {
      "inputs": [],
      "name": "PRECISION_FACTOR",
      "outputs": [
        {
          "internalType": "uint256",
          "name": "",
          "type": "uint256"
        }
      ],
      "stateMutability": "view",
      "type": "function"
    },
    {
      "inputs": [],
      "name": "SMART_CHEF_FACTORY",
      "outputs": [
        {
          "internalType": "address",
          "name": "",
          "type": "address"
        }
      ],
      "stateMutability": "view",
      "type": "function"
    },
    {
      "inputs": [],
      "name": "WLAT",
      "outputs": [
        {
          "internalType": "address",
          "name": "",
          "type": "address"
        }
      ],
      "stateMutability": "view",
      "type": "function"
    },
    {
      "inputs": [],
      "name": "accTokenPerShare",
      "outputs": [
        {
          "internalType": "uint256",
          "name": "",
          "type": "uint256"
        }
      ],
      "stateMutability": "view",
      "type": "function"
    },
    {
      "inputs": [],
      "name": "bonusEndBlock",
      "outputs": [
        {
          "internalType": "uint256",
          "name": "",
          "type": "uint256"
        }
      ],
      "stateMutability": "view",
      "type": "function"
    },
    {
      "inputs": [],
      "name": "hasUserLimit",
      "outputs": [
        {
          "internalType": "bool",
          "name": "",
          "type": "bool"
        }
      ],
      "stateMutability": "view",
      "type": "function"
    },
    {
      "inputs": [],
      "name": "isInitialized",
      "outputs": [
        {
          "internalType": "bool",
          "name": "",
          "type": "bool"
        }
      ],
      "stateMutability": "view",
      "type": "function"
    },
    {
      "inputs": [],
      "name": "lastRewardBlock",
      "outputs": [
        {
          "internalType": "uint256",
          "name": "",
          "type": "uint256"
        }
      ],
      "stateMutability": "view",
      "type": "function"
    },
    {
      "inputs": [],
      "name": "owner",
      "outputs": [
        {
          "internalType": "address",
          "name": "",
          "type": "address"
        }
      ],
      "stateMutability": "view",
      "type": "function"
    },
    {
      "inputs": [],
      "name": "poolLimitPerUser",
      "outputs": [
        {
          "internalType": "uint256",
          "name": "",
          "type": "uint256"
        }
      ],
      "stateMutability": "view",
      "type": "function"
    },
    {
      "inputs": [],
      "name": "renounceOwnership",
      "outputs": [],
      "stateMutability": "nonpayable",
      "type": "function"
    },
    {
      "inputs": [],
      "name": "rewardPerBlock",
      "outputs": [
        {
          "internalType": "uint256",
          "name": "",
          "type": "uint256"
        }
      ],
      "stateMutability": "view",
      "type": "function"
    },
    {
      "inputs": [],
      "name": "rewardToken",
      "outputs": [
        {
          "internalType": "contract IPEP20",
          "name": "",
          "type": "address"
        }
      ],
      "stateMutability": "view",
      "type": "function"
    },
    {
      "inputs": [],
      "name": "stakedToken",
      "outputs": [
        {
          "internalType": "contract IPEP20",
          "name": "",
          "type": "address"
        }
      ],
      "stateMutability": "view",
      "type": "function"
    },
    {
      "inputs": [],
      "name": "startBlock",
      "outputs": [
        {
          "internalType": "uint256",
          "name": "",
          "type": "uint256"
        }
      ],
      "stateMutability": "view",
      "type": "function"
    },
    {
      "inputs": [
        {
          "internalType": "address",
          "name": "newOwner",
          "type": "address"
        }
      ],
      "name": "transferOwnership",
      "outputs": [],
      "stateMutability": "nonpayable",
      "type": "function"
    },
    {
      "inputs": [
        {
          "internalType": "address",
          "name": "",
          "type": "address"
        }
      ],
      "name": "userInfo",
      "outputs": [
        {
          "internalType": "uint256",
          "name": "amount",
          "type": "uint256"
        },
        {
          "internalType": "uint256",
          "name": "rewardDebt",
          "type": "uint256"
        }
      ],
      "stateMutability": "view",
      "type": "function"
    },
    {
      "stateMutability": "payable",
      "type": "receive"
    },
    {
      "inputs": [
        {
          "internalType": "contract IPEP20",
          "name": "_stakedToken",
          "type": "address"
        },
        {
          "internalType": "contract IPEP20",
          "name": "_rewardToken",
          "type": "address"
        },
        {
          "internalType": "uint256",
          "name": "_rewardPerBlock",
          "type": "uint256"
        },
        {
          "internalType": "uint256",
          "name": "_startBlock",
          "type": "uint256"
        },
        {
          "internalType": "uint256",
          "name": "_bonusEndBlock",
          "type": "uint256"
        },
        {
          "internalType": "uint256",
          "name": "_poolLimitPerUser",
          "type": "uint256"
        },
        {
          "internalType": "address",
          "name": "_admin",
          "type": "address"
        },
        {
          "internalType": "address",
          "name": "_WLAT",
          "type": "address"
        }
      ],
      "name": "initialize",
      "outputs": [],
      "stateMutability": "nonpayable",
      "type": "function"
    },
    {
      "inputs": [
        {
          "internalType": "uint256",
          "name": "_amount",
          "type": "uint256"
        }
      ],
      "name": "deposit",
      "outputs": [],
      "stateMutability": "payable",
      "type": "function"
    },
    {
      "inputs": [
        {
          "internalType": "uint256",
          "name": "_amount",
          "type": "uint256"
        }
      ],
      "name": "withdraw",
      "outputs": [],
      "stateMutability": "nonpayable",
      "type": "function"
    },
    {
      "inputs": [],
      "name": "emergencyWithdraw",
      "outputs": [],
      "stateMutability": "nonpayable",
      "type": "function"
    },
    {
      "inputs": [
        {
          "internalType": "uint256",
          "name": "_amount",
          "type": "uint256"
        }
      ],
      "name": "emergencyRewardWithdraw",
      "outputs": [],
      "stateMutability": "nonpayable",
      "type": "function"
    },
    {
      "inputs": [
        {
          "internalType": "address",
          "name": "_tokenAddress",
          "type": "address"
        },
        {
          "internalType": "uint256",
          "name": "_tokenAmount",
          "type": "uint256"
        }
      ],
      "name": "recoverWrongTokens",
      "outputs": [],
      "stateMutability": "nonpayable",
      "type": "function"
    },
    {
      "inputs": [],
      "name": "stopReward",
      "outputs": [],
      "stateMutability": "nonpayable",
      "type": "function"
    },
    {
      "inputs": [
        {
          "internalType": "bool",
          "name": "_hasUserLimit",
          "type": "bool"
        },
        {
          "internalType": "uint256",
          "name": "_poolLimitPerUser",
          "type": "uint256"
        }
      ],
      "name": "updatePoolLimitPerUser",
      "outputs": [],
      "stateMutability": "nonpayable",
      "type": "function"
    },
    {
      "inputs": [
        {
          "internalType": "uint256",
          "name": "_rewardPerBlock",
          "type": "uint256"
        }
      ],
      "name": "updateRewardPerBlock",
      "outputs": [],
      "stateMutability": "nonpayable",
      "type": "function"
    },
    {
      "inputs": [
        {
          "internalType": "uint256",
          "name": "_startBlock",
          "type": "uint256"
        },
        {
          "internalType": "uint256",
          "name": "_bonusEndBlock",
          "type": "uint256"
        }
      ],
      "name": "updateStartAndEndBlocks",
      "outputs": [],
      "stateMutability": "nonpayable",
      "type": "function"
    },
    {
      "inputs": [
        {
          "internalType": "address",
          "name": "_user",
          "type": "address"
        }
      ],
      "name": "pendingReward",
      "outputs": [
        {
          "internalType": "uint256",
          "name": "",
          "type": "uint256"
        }
      ],
      "stateMutability": "view",
      "type": "function"
    }
  ],
  "bytecode": "0x60806040523480156200001157600080fd5b506000620000246200011060201b60201c565b9050806000806101000a81548173ffffffffffffffffffffffffffffffffffffffff021916908373ffffffffffffffffffffffffffffffffffffffff1602179055508073ffffffffffffffffffffffffffffffffffffffff16600073ffffffffffffffffffffffffffffffffffffffff167f8be0079c531659141344cd1fd0a4f28419497f9722a3daafe3b4186f6b6457e060405160405180910390a3506001808190555033600360006101000a81548173ffffffffffffffffffffffffffffffffffffffff021916908373ffffffffffffffffffffffffffffffffffffffff16021790555062000118565b600033905090565b613ac580620001286000396000f3fe6080604052600436106101bb5760003560e01c80638da5cb5b116100ec578063bd6171911161008a578063db2e21bc11610064578063db2e21bc146107e3578063f2fde38b146107fa578063f40f0f521461084b578063f7c618c1146108b057610219565b8063bd61719114610736578063cc7a262e14610777578063ccd34cd5146107b857610219565b80639513997f116100c65780639513997f14610651578063a0b4090514610696578063a9f8d181146106dd578063b6b55f251461070857610219565b80638da5cb5b146105b85780638f662915146105f957806392e8990e1461062457610219565b806348cd4cb111610159578063715018a611610133578063715018a61461051e57806377ae16411461053557806380dc0672146105765780638ae39cac1461058d57610219565b806348cd4cb1146103ee578063493292ef1461041957806366fe9f8a146104f357610219565b80632e1a7d4d116101955780632e1a7d4d146102f05780633279beab1461032b578063392e53cd146103665780633f138d4b1461039357610219565b806301f8a9761461021e5780631959a002146102595780631aed6553146102c557610219565b3661021957600260009054906101000a900473ffffffffffffffffffffffffffffffffffffffff1673ffffffffffffffffffffffffffffffffffffffff163373ffffffffffffffffffffffffffffffffffffffff161461021757fe5b005b600080fd5b34801561022a57600080fd5b506102576004803603602081101561024157600080fd5b81019080803590602001909291905050506108f1565b005b34801561026557600080fd5b506102a86004803603602081101561027c57600080fd5b81019080803573ffffffffffffffffffffffffffffffffffffffff169060200190929190505050610a58565b604051808381526020018281526020019250505060405180910390f35b3480156102d157600080fd5b506102da610a7c565b6040518082815260200191505060405180910390f35b3480156102fc57600080fd5b506103296004803603602081101561031357600080fd5b8101908080359060200190929190505050610a82565b005b34801561033757600080fd5b506103646004803603602081101561034e57600080fd5b8101908080359060200190929190505050610f95565b005b34801561037257600080fd5b5061037b6111a9565b60405180821515815260200191505060405180910390f35b34801561039f57600080fd5b506103ec600480360360408110156103b657600080fd5b81019080803573ffffffffffffffffffffffffffffffffffffffff169060200190929190803590602001909291905050506111bc565b005b3480156103fa57600080fd5b5061040361156a565b6040518082815260200191505060405180910390f35b34801561042557600080fd5b506104f1600480360361010081101561043d57600080fd5b81019080803573ffffffffffffffffffffffffffffffffffffffff169060200190929190803573ffffffffffffffffffffffffffffffffffffffff16906020019092919080359060200190929190803590602001909291908035906020019092919080359060200190929190803573ffffffffffffffffffffffffffffffffffffffff169060200190929190803573ffffffffffffffffffffffffffffffffffffffff169060200190929190505050611570565b005b3480156104ff57600080fd5b5061050861192f565b6040518082815260200191505060405180910390f35b34801561052a57600080fd5b50610533611935565b005b34801561054157600080fd5b5061054a611aa2565b604051808273ffffffffffffffffffffffffffffffffffffffff16815260200191505060405180910390f35b34801561058257600080fd5b5061058b611ac8565b005b34801561059957600080fd5b506105a2611bb7565b6040518082815260200191505060405180910390f35b3480156105c457600080fd5b506105cd611bbd565b604051808273ffffffffffffffffffffffffffffffffffffffff16815260200191505060405180910390f35b34801561060557600080fd5b5061060e611be6565b6040518082815260200191505060405180910390f35b34801561063057600080fd5b50610639611bec565b60405180821515815260200191505060405180910390f35b34801561065d57600080fd5b506106946004803603604081101561067457600080fd5b810190808035906020019092919080359060200190929190505050611bff565b005b3480156106a257600080fd5b506106db600480360360408110156106b957600080fd5b8101908080351515906020019092919080359060200190929190505050611e2f565b005b3480156106e957600080fd5b506106f2612049565b6040518082815260200191505060405180910390f35b6107346004803603602081101561071e57600080fd5b810190808035906020019092919050505061204f565b005b34801561074257600080fd5b5061074b612762565b604051808273ffffffffffffffffffffffffffffffffffffffff16815260200191505060405180910390f35b34801561078357600080fd5b5061078c612788565b604051808273ffffffffffffffffffffffffffffffffffffffff16815260200191505060405180910390f35b3480156107c457600080fd5b506107cd6127ae565b6040518082815260200191505060405180910390f35b3480156107ef57600080fd5b506107f86127b4565b005b34801561080657600080fd5b506108496004803603602081101561081d57600080fd5b81019080803573ffffffffffffffffffffffffffffffffffffffff169060200190929190505050612a5e565b005b34801561085757600080fd5b5061089a6004803603602081101561086e57600080fd5b81019080803573ffffffffffffffffffffffffffffffffffffffff169060200190929190505050612c50565b6040518082815260200191505060405180910390f35b3480156108bc57600080fd5b506108c5612e75565b604051808273ffffffffffffffffffffffffffffffffffffffff16815260200191505060405180910390f35b6108f9612e9b565b73ffffffffffffffffffffffffffffffffffffffff16610917611bbd565b73ffffffffffffffffffffffffffffffffffffffff16146109a0576040517f08c379a00000000000000000000000000000000000000000000000000000000081526004018080602001828103825260208152602001807f4f776e61626c653a2063616c6c6572206973206e6f7420746865206f776e657281525060200191505060405180910390fd5b6006544310610a17576040517f08c379a00000000000000000000000000000000000000000000000000000000081526004018080602001828103825260108152602001807f506f6f6c2068617320737461727465640000000000000000000000000000000081525060200191505060405180910390fd5b806009819055507f0c4d677eef92893ac7ec52faf8140fc6c851ab4736302b4f3a89dfb20696a0df816040518082815260200191505060405180910390a150565b600d6020528060005260406000206000915090508060000154908060010154905082565b60055481565b60026001541415610afb576040517f08c379a000000000000000000000000000000000000000000000000000000000815260040180806020018281038252601f8152602001807f5265656e7472616e637947756172643a207265656e7472616e742063616c6c0081525060200191505060405180910390fd5b60026001819055506000600d60003373ffffffffffffffffffffffffffffffffffffffff1673ffffffffffffffffffffffffffffffffffffffff16815260200190815260200160002090508181600001541015610bc0576040517f08c379a000000000000000000000000000000000000000000000000000000000815260040180806020018281038252601b8152602001807f416d6f756e7420746f20776974686472617720746f6f2068696768000000000081525060200191505060405180910390fd5b610bc8612ea3565b6000610c0d8260010154610bff600a54610bf1600454876000015461300690919063ffffffff16565b61308c90919063ffffffff16565b6130d690919063ffffffff16565b90506000831115610d9a57610c2f8383600001546130d690919063ffffffff16565b8260000181905550600260009054906101000a900473ffffffffffffffffffffffffffffffffffffffff1673ffffffffffffffffffffffffffffffffffffffff16600c60009054906101000a900473ffffffffffffffffffffffffffffffffffffffff1673ffffffffffffffffffffffffffffffffffffffff161415610d4b57600260009054906101000a900473ffffffffffffffffffffffffffffffffffffffff1673ffffffffffffffffffffffffffffffffffffffff16632e1a7d4d846040518263ffffffff1660e01b815260040180828152602001915050600060405180830381600087803b158015610d2457600080fd5b505af1158015610d38573d6000803e3d6000fd5b50505050610d463384613120565b610d99565b610d983384600c60009054906101000a900473ffffffffffffffffffffffffffffffffffffffff1673ffffffffffffffffffffffffffffffffffffffff1661327f9092919063ffffffff16565b5b5b6000811115610f0657600260009054906101000a900473ffffffffffffffffffffffffffffffffffffffff1673ffffffffffffffffffffffffffffffffffffffff16600b60009054906101000a900473ffffffffffffffffffffffffffffffffffffffff1673ffffffffffffffffffffffffffffffffffffffff161415610eb757600260009054906101000a900473ffffffffffffffffffffffffffffffffffffffff1673ffffffffffffffffffffffffffffffffffffffff16632e1a7d4d826040518263ffffffff1660e01b815260040180828152602001915050600060405180830381600087803b158015610e9057600080fd5b505af1158015610ea4573d6000803e3d6000fd5b50505050610eb23382613120565b610f05565b610f043382600b60009054906101000a900473ffffffffffffffffffffffffffffffffffffffff1673ffffffffffffffffffffffffffffffffffffffff1661327f9092919063ffffffff16565b5b5b610f33600a54610f25600454856000015461300690919063ffffffff16565b61308c90919063ffffffff16565b82600101819055503373ffffffffffffffffffffffffffffffffffffffff167f884edad9ce6fa2440d8a54cc123490eb96d2768479d49ff9c7366125a9424364846040518082815260200191505060405180910390a250506001808190555050565b610f9d612e9b565b73ffffffffffffffffffffffffffffffffffffffff16610fbb611bbd565b73ffffffffffffffffffffffffffffffffffffffff1614611044576040517f08c379a00000000000000000000000000000000000000000000000000000000081526004018080602001828103825260208152602001807f4f776e61626c653a2063616c6c6572206973206e6f7420746865206f776e657281525060200191505060405180910390fd5b600260009054906101000a900473ffffffffffffffffffffffffffffffffffffffff1673ffffffffffffffffffffffffffffffffffffffff16600b60009054906101000a900473ffffffffffffffffffffffffffffffffffffffff1673ffffffffffffffffffffffffffffffffffffffff16141561115857600260009054906101000a900473ffffffffffffffffffffffffffffffffffffffff1673ffffffffffffffffffffffffffffffffffffffff16632e1a7d4d826040518263ffffffff1660e01b815260040180828152602001915050600060405180830381600087803b15801561113157600080fd5b505af1158015611145573d6000803e3d6000fd5b505050506111533382613120565b6111a6565b6111a53382600b60009054906101000a900473ffffffffffffffffffffffffffffffffffffffff1673ffffffffffffffffffffffffffffffffffffffff1661327f9092919063ffffffff16565b5b50565b600360159054906101000a900460ff1681565b6111c4612e9b565b73ffffffffffffffffffffffffffffffffffffffff166111e2611bbd565b73ffffffffffffffffffffffffffffffffffffffff161461126b576040517f08c379a00000000000000000000000000000000000000000000000000000000081526004018080602001828103825260208152602001807f4f776e61626c653a2063616c6c6572206973206e6f7420746865206f776e657281525060200191505060405180910390fd5b600c60009054906101000a900473ffffffffffffffffffffffffffffffffffffffff1673ffffffffffffffffffffffffffffffffffffffff168273ffffffffffffffffffffffffffffffffffffffff16141561132f576040517f08c379a00000000000000000000000000000000000000000000000000000000081526004018080602001828103825260168152602001807f43616e6e6f74206265207374616b656420746f6b656e0000000000000000000081525060200191505060405180910390fd5b600b60009054906101000a900473ffffffffffffffffffffffffffffffffffffffff1673ffffffffffffffffffffffffffffffffffffffff168273ffffffffffffffffffffffffffffffffffffffff1614156113f3576040517f08c379a00000000000000000000000000000000000000000000000000000000081526004018080602001828103825260168152602001807f43616e6e6f742062652072657761726420746f6b656e0000000000000000000081525060200191505060405180910390fd5b600260009054906101000a900473ffffffffffffffffffffffffffffffffffffffff1673ffffffffffffffffffffffffffffffffffffffff168273ffffffffffffffffffffffffffffffffffffffff1614156114e557600260009054906101000a900473ffffffffffffffffffffffffffffffffffffffff1673ffffffffffffffffffffffffffffffffffffffff16632e1a7d4d826040518263ffffffff1660e01b815260040180828152602001915050600060405180830381600087803b1580156114be57600080fd5b505af11580156114d2573d6000803e3d6000fd5b505050506114e03382613120565b611511565b61151033828473ffffffffffffffffffffffffffffffffffffffff1661327f9092919063ffffffff16565b5b7f74545154aac348a3eac92596bd1971957ca94795f4e954ec5f613b55fab781298282604051808373ffffffffffffffffffffffffffffffffffffffff1681526020018281526020019250505060405180910390a15050565b60065481565b600360159054906101000a900460ff16156115f3576040517f08c379a00000000000000000000000000000000000000000000000000000000081526004018080602001828103825260138152602001807f416c726561647920696e697469616c697a65640000000000000000000000000081525060200191505060405180910390fd5b600360009054906101000a900473ffffffffffffffffffffffffffffffffffffffff1673ffffffffffffffffffffffffffffffffffffffff163373ffffffffffffffffffffffffffffffffffffffff16146116b6576040517f08c379a000000000000000000000000000000000000000000000000000000000815260040180806020018281038252600b8152602001807f4e6f7420666163746f727900000000000000000000000000000000000000000081525060200191505060405180910390fd5b6001600360156101000a81548160ff02191690831515021790555087600c60006101000a81548173ffffffffffffffffffffffffffffffffffffffff021916908373ffffffffffffffffffffffffffffffffffffffff16021790555086600b60006101000a81548173ffffffffffffffffffffffffffffffffffffffff021916908373ffffffffffffffffffffffffffffffffffffffff16021790555085600981905550846006819055508360058190555080600260006101000a81548173ffffffffffffffffffffffffffffffffffffffff021916908373ffffffffffffffffffffffffffffffffffffffff16021790555060008311156117d5576001600360146101000a81548160ff021916908315150217905550826008819055505b6000600b60009054906101000a900473ffffffffffffffffffffffffffffffffffffffff1673ffffffffffffffffffffffffffffffffffffffff1663313ce5676040518163ffffffff1660e01b815260040160206040518083038186803b15801561183f57600080fd5b505afa158015611853573d6000803e3d6000fd5b505050506040513d602081101561186957600080fd5b810190808051906020019092919050505060ff169050601e81106118f5576040517f08c379a00000000000000000000000000000000000000000000000000000000081526004018080602001828103825260168152602001807f4d75737420626520696e666572696f7220746f2033300000000000000000000081525060200191505060405180910390fd5b61190981601e6130d690919063ffffffff16565b600a0a600a8190555060065460078190555061192483612a5e565b505050505050505050565b60085481565b61193d612e9b565b73ffffffffffffffffffffffffffffffffffffffff1661195b611bbd565b73ffffffffffffffffffffffffffffffffffffffff16146119e4576040517f08c379a00000000000000000000000000000000000000000000000000000000081526004018080602001828103825260208152602001807f4f776e61626c653a2063616c6c6572206973206e6f7420746865206f776e657281525060200191505060405180910390fd5b600073ffffffffffffffffffffffffffffffffffffffff1660008054906101000a900473ffffffffffffffffffffffffffffffffffffffff1673ffffffffffffffffffffffffffffffffffffffff167f8be0079c531659141344cd1fd0a4f28419497f9722a3daafe3b4186f6b6457e060405160405180910390a360008060006101000a81548173ffffffffffffffffffffffffffffffffffffffff021916908373ffffffffffffffffffffffffffffffffffffffff160217905550565b600260009054906101000a900473ffffffffffffffffffffffffffffffffffffffff1681565b611ad0612e9b565b73ffffffffffffffffffffffffffffffffffffffff16611aee611bbd565b73ffffffffffffffffffffffffffffffffffffffff1614611b77576040517f08c379a00000000000000000000000000000000000000000000000000000000081526004018080602001828103825260208152602001807f4f776e61626c653a2063616c6c6572206973206e6f7420746865206f776e657281525060200191505060405180910390fd5b436005819055507ffed9fcb0ca3d1e761a4b929792bb24082fba92dca81252646ad306d306806566436040518082815260200191505060405180910390a1565b60095481565b60008060009054906101000a900473ffffffffffffffffffffffffffffffffffffffff16905090565b60045481565b600360149054906101000a900460ff1681565b611c07612e9b565b73ffffffffffffffffffffffffffffffffffffffff16611c25611bbd565b73ffffffffffffffffffffffffffffffffffffffff1614611cae576040517f08c379a00000000000000000000000000000000000000000000000000000000081526004018080602001828103825260208152602001807f4f776e61626c653a2063616c6c6572206973206e6f7420746865206f776e657281525060200191505060405180910390fd5b6006544310611d25576040517f08c379a00000000000000000000000000000000000000000000000000000000081526004018080602001828103825260108152602001807f506f6f6c2068617320737461727465640000000000000000000000000000000081525060200191505060405180910390fd5b808210611d7d576040517f08c379a000000000000000000000000000000000000000000000000000000000815260040180806020018281038252602e8152602001806139ee602e913960400191505060405180910390fd5b814310611dd5576040517f08c379a0000000000000000000000000000000000000000000000000000000008152600401808060200182810382526030815260200180613a1c6030913960400191505060405180910390fd5b81600681905550806005819055506006546007819055507f7cd0ab87d19036f3dfadadb232c78aa4879dda3f0c994a9d637532410ee2ce068282604051808381526020018281526020019250505060405180910390a15050565b611e37612e9b565b73ffffffffffffffffffffffffffffffffffffffff16611e55611bbd565b73ffffffffffffffffffffffffffffffffffffffff1614611ede576040517f08c379a00000000000000000000000000000000000000000000000000000000081526004018080602001828103825260208152602001807f4f776e61626c653a2063616c6c6572206973206e6f7420746865206f776e657281525060200191505060405180910390fd5b600360149054906101000a900460ff16611f60576040517f08c379a000000000000000000000000000000000000000000000000000000000815260040180806020018281038252600b8152602001807f4d7573742062652073657400000000000000000000000000000000000000000081525060200191505060405180910390fd5b8115611fe9576008548111611fdd576040517f08c379a00000000000000000000000000000000000000000000000000000000081526004018080602001828103825260188152602001807f4e6577206c696d6974206d75737420626520686967686572000000000000000081525060200191505060405180910390fd5b8060088190555061200c565b81600360146101000a81548160ff02191690831515021790555060006008819055505b7f241f67ee5f41b7a5cabf911367329be7215900f602ebfc47f89dce2a6bcd847c6008546040518082815260200191505060405180910390a15050565b60075481565b600260015414156120c8576040517f08c379a000000000000000000000000000000000000000000000000000000000815260040180806020018281038252601f8152602001807f5265656e7472616e637947756172643a207265656e7472616e742063616c6c0081525060200191505060405180910390fd5b6002600181905550600260009054906101000a900473ffffffffffffffffffffffffffffffffffffffff1673ffffffffffffffffffffffffffffffffffffffff16600c60009054906101000a900473ffffffffffffffffffffffffffffffffffffffff1673ffffffffffffffffffffffffffffffffffffffff1614801561214f5750600034115b156121ca573481146121c9576040517f08c379a00000000000000000000000000000000000000000000000000000000081526004018080602001828103825260148152602001807f6465706f73697420616d6f756e74206572726f7200000000000000000000000081525060200191505060405180910390fd5b5b6000600d60003373ffffffffffffffffffffffffffffffffffffffff1673ffffffffffffffffffffffffffffffffffffffff1681526020019081526020016000209050600360149054906101000a900460ff16156122b15760085461223c82600001548461332190919063ffffffff16565b11156122b0576040517f08c379a00000000000000000000000000000000000000000000000000000000081526004018080602001828103825260178152602001807f5573657220616d6f756e742061626f7665206c696d697400000000000000000081525060200191505060405180910390fd5b5b6122b9612ea3565b60008160000154111561247b57600061230b82600101546122fd600a546122ef600454876000015461300690919063ffffffff16565b61308c90919063ffffffff16565b6130d690919063ffffffff16565b9050600081111561247957600260009054906101000a900473ffffffffffffffffffffffffffffffffffffffff1673ffffffffffffffffffffffffffffffffffffffff16600b60009054906101000a900473ffffffffffffffffffffffffffffffffffffffff1673ffffffffffffffffffffffffffffffffffffffff16141561242a57600260009054906101000a900473ffffffffffffffffffffffffffffffffffffffff1673ffffffffffffffffffffffffffffffffffffffff16632e1a7d4d826040518263ffffffff1660e01b815260040180828152602001915050600060405180830381600087803b15801561240357600080fd5b505af1158015612417573d6000803e3d6000fd5b505050506124253382613120565b612478565b6124773382600b60009054906101000a900473ffffffffffffffffffffffffffffffffffffffff1673ffffffffffffffffffffffffffffffffffffffff1661327f9092919063ffffffff16565b5b5b505b60008211156126d45761249b82826000015461332190919063ffffffff16565b8160000181905550600260009054906101000a900473ffffffffffffffffffffffffffffffffffffffff1673ffffffffffffffffffffffffffffffffffffffff16600c60009054906101000a900473ffffffffffffffffffffffffffffffffffffffff1673ffffffffffffffffffffffffffffffffffffffff161480156125225750600034115b1561268357600260009054906101000a900473ffffffffffffffffffffffffffffffffffffffff1673ffffffffffffffffffffffffffffffffffffffff1663d0e30db0346040518263ffffffff1660e01b81526004016000604051808303818588803b15801561259157600080fd5b505af11580156125a5573d6000803e3d6000fd5b5050505050600260009054906101000a900473ffffffffffffffffffffffffffffffffffffffff1673ffffffffffffffffffffffffffffffffffffffff1663a9059cbb30346040518363ffffffff1660e01b8152600401808373ffffffffffffffffffffffffffffffffffffffff16815260200182815260200192505050602060405180830381600087803b15801561263d57600080fd5b505af1158015612651573d6000803e3d6000fd5b505050506040513d602081101561266757600080fd5b810190808051906020019092919050505061267e57fe5b6126d3565b6126d2333084600c60009054906101000a900473ffffffffffffffffffffffffffffffffffffffff1673ffffffffffffffffffffffffffffffffffffffff166133a9909392919063ffffffff16565b5b5b612701600a546126f3600454846000015461300690919063ffffffff16565b61308c90919063ffffffff16565b81600101819055503373ffffffffffffffffffffffffffffffffffffffff167fe1fffcc4923d04b559f4d29a8bfc6cda04eb5b0d3c460751c2402c5c5cc9109c836040518082815260200191505060405180910390a2506001808190555050565b600360009054906101000a900473ffffffffffffffffffffffffffffffffffffffff1681565b600c60009054906101000a900473ffffffffffffffffffffffffffffffffffffffff1681565b600a5481565b6002600154141561282d576040517f08c379a000000000000000000000000000000000000000000000000000000000815260040180806020018281038252601f8152602001807f5265656e7472616e637947756172643a207265656e7472616e742063616c6c0081525060200191505060405180910390fd5b60026001819055506000600d60003373ffffffffffffffffffffffffffffffffffffffff1673ffffffffffffffffffffffffffffffffffffffff168152602001908152602001600020905060008160000154905060008260000181905550600082600101819055506000811115612a0157600260009054906101000a900473ffffffffffffffffffffffffffffffffffffffff1673ffffffffffffffffffffffffffffffffffffffff16600c60009054906101000a900473ffffffffffffffffffffffffffffffffffffffff1673ffffffffffffffffffffffffffffffffffffffff1614156129b257600260009054906101000a900473ffffffffffffffffffffffffffffffffffffffff1673ffffffffffffffffffffffffffffffffffffffff16632e1a7d4d826040518263ffffffff1660e01b815260040180828152602001915050600060405180830381600087803b15801561298b57600080fd5b505af115801561299f573d6000803e3d6000fd5b505050506129ad3382613120565b612a00565b6129ff3382600c60009054906101000a900473ffffffffffffffffffffffffffffffffffffffff1673ffffffffffffffffffffffffffffffffffffffff1661327f9092919063ffffffff16565b5b5b3373ffffffffffffffffffffffffffffffffffffffff167f5fafa99d0643513820be26656b45130b01e1c03062e1266bf36f88cbd3bd969583600001546040518082815260200191505060405180910390a2505060018081905550565b612a66612e9b565b73ffffffffffffffffffffffffffffffffffffffff16612a84611bbd565b73ffffffffffffffffffffffffffffffffffffffff1614612b0d576040517f08c379a00000000000000000000000000000000000000000000000000000000081526004018080602001828103825260208152602001807f4f776e61626c653a2063616c6c6572206973206e6f7420746865206f776e657281525060200191505060405180910390fd5b600073ffffffffffffffffffffffffffffffffffffffff168173ffffffffffffffffffffffffffffffffffffffff161415612b93576040517f08c379a00000000000000000000000000000000000000000000000000000000081526004018080602001828103825260268152602001806139c86026913960400191505060405180910390fd5b8073ffffffffffffffffffffffffffffffffffffffff1660008054906101000a900473ffffffffffffffffffffffffffffffffffffffff1673ffffffffffffffffffffffffffffffffffffffff167f8be0079c531659141344cd1fd0a4f28419497f9722a3daafe3b4186f6b6457e060405160405180910390a3806000806101000a81548173ffffffffffffffffffffffffffffffffffffffff021916908373ffffffffffffffffffffffffffffffffffffffff16021790555050565b600080600d60008473ffffffffffffffffffffffffffffffffffffffff1673ffffffffffffffffffffffffffffffffffffffff16815260200190815260200160002090506000600c60009054906101000a900473ffffffffffffffffffffffffffffffffffffffff1673ffffffffffffffffffffffffffffffffffffffff166370a08231306040518263ffffffff1660e01b8152600401808273ffffffffffffffffffffffffffffffffffffffff16815260200191505060206040518083038186803b158015612d1f57600080fd5b505afa158015612d33573d6000803e3d6000fd5b505050506040513d6020811015612d4957600080fd5b8101908080519060200190929190505050905060075443118015612d6e575060008114155b15612e28576000612d816007544361346a565b90506000612d9a6009548361300690919063ffffffff16565b90506000612dd9612dc885612dba600a548661300690919063ffffffff16565b61308c90919063ffffffff16565b60045461332190919063ffffffff16565b9050612e1c8560010154612e0e600a54612e00858a6000015461300690919063ffffffff16565b61308c90919063ffffffff16565b6130d690919063ffffffff16565b95505050505050612e70565b612e6b8260010154612e5d600a54612e4f600454876000015461300690919063ffffffff16565b61308c90919063ffffffff16565b6130d690919063ffffffff16565b925050505b919050565b600b60009054906101000a900473ffffffffffffffffffffffffffffffffffffffff1681565b600033905090565b6007544311612eb157613004565b6000600c60009054906101000a900473ffffffffffffffffffffffffffffffffffffffff1673ffffffffffffffffffffffffffffffffffffffff166370a08231306040518263ffffffff1660e01b8152600401808273ffffffffffffffffffffffffffffffffffffffff16815260200191505060206040518083038186803b158015612f3c57600080fd5b505afa158015612f50573d6000803e3d6000fd5b505050506040513d6020811015612f6657600080fd5b810190808051906020019092919050505090506000811415612f8f574360078190555050613004565b6000612f9d6007544361346a565b90506000612fb66009548361300690919063ffffffff16565b9050612ff3612fe284612fd4600a548561300690919063ffffffff16565b61308c90919063ffffffff16565b60045461332190919063ffffffff16565b600481905550436007819055505050505b565b6000808314156130195760009050613086565b600082840290508284828161302a57fe5b0414613081576040517f08c379a0000000000000000000000000000000000000000000000000000000008152600401808060200182810382526021815260200180613a4c6021913960400191505060405180910390fd5b809150505b92915050565b60006130ce83836040518060400160405280601a81526020017f536166654d6174683a206469766973696f6e206279207a65726f0000000000008152506134bf565b905092915050565b600061311883836040518060400160405280601e81526020017f536166654d6174683a207375627472616374696f6e206f766572666c6f770000815250613585565b905092915050565b60008273ffffffffffffffffffffffffffffffffffffffff1682600067ffffffffffffffff8111801561315257600080fd5b506040519080825280601f01601f1916602001820160405280156131855781602001600182028036833780820191505090505b506040518082805190602001908083835b602083106131b95780518252602082019150602081019050602083039250613196565b6001836020036101000a03801982511681845116808217855250505050505090500191505060006040518083038185875af1925050503d806000811461321b576040519150601f19603f3d011682016040523d82523d6000602084013e613220565b606091505b505090508061327a576040517f08c379a0000000000000000000000000000000000000000000000000000000008152600401808060200182810382526023815260200180613a6d6023913960400191505060405180910390fd5b505050565b61331c8363a9059cbb60e01b8484604051602401808373ffffffffffffffffffffffffffffffffffffffff16815260200182815260200192505050604051602081830303815290604052907bffffffffffffffffffffffffffffffffffffffffffffffffffffffff19166020820180517bffffffffffffffffffffffffffffffffffffffffffffffffffffffff8381831617835250505050613645565b505050565b60008082840190508381101561339f576040517f08c379a000000000000000000000000000000000000000000000000000000000815260040180806020018281038252601b8152602001807f536166654d6174683a206164646974696f6e206f766572666c6f77000000000081525060200191505060405180910390fd5b8091505092915050565b613464846323b872dd60e01b858585604051602401808473ffffffffffffffffffffffffffffffffffffffff1681526020018373ffffffffffffffffffffffffffffffffffffffff1681526020018281526020019350505050604051602081830303815290604052907bffffffffffffffffffffffffffffffffffffffffffffffffffffffff19166020820180517bffffffffffffffffffffffffffffffffffffffffffffffffffffffff8381831617835250505050613645565b50505050565b6000600554821161348f5761348883836130d690919063ffffffff16565b90506134b9565b60055483106134a157600090506134b9565b6134b6836005546130d690919063ffffffff16565b90505b92915050565b6000808311829061356b576040517f08c379a00000000000000000000000000000000000000000000000000000000081526004018080602001828103825283818151815260200191508051906020019080838360005b83811015613530578082015181840152602081019050613515565b50505050905090810190601f16801561355d5780820380516001836020036101000a031916815260200191505b509250505060405180910390fd5b50600083858161357757fe5b049050809150509392505050565b6000838311158290613632576040517f08c379a00000000000000000000000000000000000000000000000000000000081526004018080602001828103825283818151815260200191508051906020019080838360005b838110156135f75780820151818401526020810190506135dc565b50505050905090810190601f1680156136245780820380516001836020036101000a031916815260200191505b509250505060405180910390fd5b5060008385039050809150509392505050565b60606136a7826040518060400160405280602081526020017f5361666550455032303a206c6f772d6c6576656c2063616c6c206661696c65648152508573ffffffffffffffffffffffffffffffffffffffff166137349092919063ffffffff16565b905060008151111561372f578080602001905160208110156136c857600080fd5b810190808051906020019092919050505061372e576040517f08c379a000000000000000000000000000000000000000000000000000000000815260040180806020018281038252602a81526020018061399e602a913960400191505060405180910390fd5b5b505050565b6060613743848460008561374c565b90509392505050565b606061375785613952565b6137c9576040517f08c379a000000000000000000000000000000000000000000000000000000000815260040180806020018281038252601d8152602001807f416464726573733a2063616c6c20746f206e6f6e2d636f6e747261637400000081525060200191505060405180910390fd5b600060608673ffffffffffffffffffffffffffffffffffffffff1685876040518082805190602001908083835b6020831061381957805182526020820191506020810190506020830392506137f6565b6001836020036101000a03801982511681845116808217855250505050505090500191505060006040518083038185875af1925050503d806000811461387b576040519150601f19603f3d011682016040523d82523d6000602084013e613880565b606091505b5091509150811561389557809250505061394a565b6000815111156138a85780518082602001fd5b836040517f08c379a00000000000000000000000000000000000000000000000000000000081526004018080602001828103825283818151815260200191508051906020019080838360005b8381101561390f5780820151818401526020810190506138f4565b50505050905090810190601f16801561393c5780820380516001836020036101000a031916815260200191505b509250505060405180910390fd5b949350505050565b60008060007fc5d2460186f7233c927e7db2dcc703c0e500b653ca82273b7bfad8045d85a47060001b9050833f915080821415801561399457506000801b8214155b9250505091905056fe5361666550455032303a205045503230206f7065726174696f6e20646964206e6f7420737563636565644f776e61626c653a206e6577206f776e657220697320746865207a65726f20616464726573734e6577207374617274426c6f636b206d757374206265206c6f776572207468616e206e657720656e64426c6f636b4e6577207374617274426c6f636b206d75737420626520686967686572207468616e2063757272656e7420626c6f636b536166654d6174683a206d756c7469706c69636174696f6e206f766572666c6f775472616e7366657248656c7065723a204c41545f5452414e534645525f4641494c4544a2646970667358221220912c991acf887e1ff93285fd66987e30a9a5699447c678715de959f4c6ee7fd764736f6c634300060c0033",
  "immutableReferences": {},
  "source": "pragma solidity 0.6.12;\n\nimport \"@openzeppelin/contracts/utils/Context.sol\";\nimport \"@openzeppelin/contracts/access/Ownable.sol\";\nimport \"@openzeppelin/contracts/utils/ReentrancyGuard.sol\";\nimport \"@dipoleswap/dipole-swap-lib/contracts/token/PEP20/IPEP20.sol\";\nimport \"@dipoleswap/dipole-swap-lib/contracts/token/PEP20/SafePEP20.sol\";\nimport './libs/IWLAT.sol';\n\n// File: contracts/SmartChefInitializable.sol\n\ncontract SmartChefInitializable is Ownable, ReentrancyGuard {\n    using SafeMath for uint256;\n    using SafePEP20 for IPEP20;\n    address public WLAT;\n\n    // The address of the smart chef factory\n    address public SMART_CHEF_FACTORY;\n\n    // Whether a limit is set for users\n    bool public hasUserLimit;\n\n    // Whether it is initialized\n    bool public isInitialized;\n\n    // Accrued token per share\n    uint256 public accTokenPerShare;\n\n    // The block number when activity ends.\n    uint256 public bonusEndBlock;\n\n    // The block number when activity starts.\n    uint256 public startBlock;\n\n    // The block number of the last pool update\n    uint256 public lastRewardBlock;\n\n    // The pool limit (0 if none)\n    uint256 public poolLimitPerUser;\n\n    // reward tokens per block.\n    uint256 public rewardPerBlock;\n\n    // The precision factor\n    uint256 public PRECISION_FACTOR;\n\n    // The reward token\n    IPEP20 public rewardToken;\n\n    // The staked token\n    IPEP20 public stakedToken;\n\n    // Info of each user that stakes tokens (stakedToken)\n    mapping(address => UserInfo) public userInfo;\n\n    struct UserInfo {\n        uint256 amount; // How many staked tokens the user has provided\n        uint256 rewardDebt; // Reward debt\n    }\n\n    event AdminTokenRecovery(address tokenRecovered, uint256 amount);\n    event Deposit(address indexed user, uint256 amount);\n    event EmergencyWithdraw(address indexed user, uint256 amount);\n    event NewStartAndEndBlocks(uint256 startBlock, uint256 endBlock);\n    event NewRewardPerBlock(uint256 rewardPerBlock);\n    event NewPoolLimit(uint256 poolLimitPerUser);\n    event RewardsStop(uint256 blockNumber);\n    event Withdraw(address indexed user, uint256 amount);\n\n    constructor() public {\n        SMART_CHEF_FACTORY = msg.sender;\n    }\n\n    receive() external payable {\n        assert(msg.sender == WLAT);\n    }\n\n    /*\n     * @notice Initialize the contract\n     * @param _stakedToken: staked token address\n     * @param _rewardToken: reward token address\n     * @param _rewardPerBlock: reward per block (in rewardToken)\n     * @param _startBlock: start block\n     * @param _bonusEndBlock: end block\n     * @param _poolLimitPerUser: pool limit per user in stakedToken (if any, else 0)\n     * @param _admin: admin address with ownership\n     * @param _WLAT: wlat address\n     */\n    function initialize(\n        IPEP20 _stakedToken,\n        IPEP20 _rewardToken,\n        uint256 _rewardPerBlock,\n        uint256 _startBlock,\n        uint256 _bonusEndBlock,\n        uint256 _poolLimitPerUser,\n        address _admin,\n        address _WLAT\n    ) external {\n        require(!isInitialized, \"Already initialized\");\n\n        require(msg.sender == SMART_CHEF_FACTORY, \"Not factory\");\n\n        // Make this contract initialized\n        isInitialized = true;\n\n        stakedToken = _stakedToken;\n        rewardToken = _rewardToken;\n        rewardPerBlock = _rewardPerBlock;\n        startBlock = _startBlock;\n        bonusEndBlock = _bonusEndBlock;\n        WLAT = _WLAT;\n\n        if (_poolLimitPerUser > 0) {\n            hasUserLimit = true;\n            poolLimitPerUser = _poolLimitPerUser;\n        }\n\n        uint256 decimalsRewardToken = uint256(rewardToken.decimals());\n        require(decimalsRewardToken < 30, \"Must be inferior to 30\");\n\n        PRECISION_FACTOR = uint256(10**(uint256(30).sub(decimalsRewardToken)));\n\n        // Set the lastRewardBlock as the startBlock\n        lastRewardBlock = startBlock;\n\n        // Transfer ownership to the admin address who becomes owner of the contract\n        transferOwnership(_admin);\n    }\n\n    /*\n     * @notice Deposit staked tokens and collect reward tokens (if any)\n     * @param _amount: amount to withdraw (in rewardToken)\n     */\n    function deposit(uint256 _amount) external payable nonReentrant {\n        if (address(stakedToken) == WLAT && msg.value > 0) {\n            require(_amount == msg.value, 'deposit amount error');\n        }\n        UserInfo storage user = userInfo[msg.sender];\n\n        if (hasUserLimit) {\n            require(_amount.add(user.amount) <= poolLimitPerUser, \"User amount above limit\");\n        }\n\n        _updatePool();\n\n        if (user.amount > 0) {\n            uint256 pending = user.amount.mul(accTokenPerShare).div(PRECISION_FACTOR).sub(user.rewardDebt);\n            if (pending > 0) {\n                if (address(rewardToken) == WLAT) {\n                    IWLAT(WLAT).withdraw(pending);\n                    safeTransferLAT(address(msg.sender), pending);\n                } else {\n                    rewardToken.safeTransfer(address(msg.sender), pending);\n                }\n            }\n        }\n\n        if (_amount > 0) {\n            user.amount = user.amount.add(_amount);\n            if (address(stakedToken) == WLAT && msg.value > 0) {\n                IWLAT(WLAT).deposit{value: msg.value}();\n                assert(IWLAT(WLAT).transfer(address(this), msg.value));\n            } else {\n                stakedToken.safeTransferFrom(address(msg.sender), address(this), _amount);\n            }\n        }\n\n        user.rewardDebt = user.amount.mul(accTokenPerShare).div(PRECISION_FACTOR);\n\n        emit Deposit(msg.sender, _amount);\n    }\n\n    function safeTransferLAT(address to, uint256 value) internal {\n        (bool success, ) = to.call{value: value}(new bytes(0));\n        require(success, 'TransferHelper: LAT_TRANSFER_FAILED');\n    }\n\n    /*\n     * @notice Withdraw staked tokens and collect reward tokens\n     * @param _amount: amount to withdraw (in rewardToken)\n     */\n    function withdraw(uint256 _amount) external nonReentrant {\n        UserInfo storage user = userInfo[msg.sender];\n        require(user.amount >= _amount, \"Amount to withdraw too high\");\n\n        _updatePool();\n\n        uint256 pending = user.amount.mul(accTokenPerShare).div(PRECISION_FACTOR).sub(user.rewardDebt);\n\n        if (_amount > 0) {\n            user.amount = user.amount.sub(_amount);\n            if (address(stakedToken) == WLAT) {\n                IWLAT(WLAT).withdraw(_amount);\n                safeTransferLAT(address(msg.sender), _amount);\n            } else {\n                stakedToken.safeTransfer(address(msg.sender), _amount);\n            }\n        }\n\n        if (pending > 0) {\n            if (address(rewardToken) == WLAT) {\n                IWLAT(WLAT).withdraw(pending);\n                safeTransferLAT(address(msg.sender), pending);\n            } else {\n                rewardToken.safeTransfer(address(msg.sender), pending);\n            }\n        }\n\n        user.rewardDebt = user.amount.mul(accTokenPerShare).div(PRECISION_FACTOR);\n\n        emit Withdraw(msg.sender, _amount);\n    }\n\n    /*\n     * @notice Withdraw staked tokens without caring about rewards rewards\n     * @dev Needs to be for emergency.\n     */\n    function emergencyWithdraw() external nonReentrant {\n        UserInfo storage user = userInfo[msg.sender];\n        uint256 amountToTransfer = user.amount;\n        user.amount = 0;\n        user.rewardDebt = 0;\n\n        if (amountToTransfer > 0) {\n            if (address(stakedToken) == WLAT) {\n                IWLAT(WLAT).withdraw(amountToTransfer);\n                safeTransferLAT(address(msg.sender), amountToTransfer);\n            } else {\n                stakedToken.safeTransfer(address(msg.sender), amountToTransfer);\n            }\n        }\n\n        emit EmergencyWithdraw(msg.sender, user.amount);\n    }\n\n    /*\n     * @notice Stop rewards\n     * @dev Only callable by owner. Needs to be for emergency.\n     */\n    function emergencyRewardWithdraw(uint256 _amount) external onlyOwner {\n        if (address(rewardToken) == WLAT) {\n            IWLAT(WLAT).withdraw(_amount);\n            safeTransferLAT(address(msg.sender), _amount);\n        } else {\n            rewardToken.safeTransfer(address(msg.sender), _amount);\n        }\n    }\n\n    /**\n     * @notice It allows the admin to recover wrong tokens sent to the contract\n     * @param _tokenAddress: the address of the token to withdraw\n     * @param _tokenAmount: the number of tokens to withdraw\n     * @dev This function is only callable by admin.\n     */\n    function recoverWrongTokens(address _tokenAddress, uint256 _tokenAmount) external onlyOwner {\n        require(_tokenAddress != address(stakedToken), \"Cannot be staked token\");\n        require(_tokenAddress != address(rewardToken), \"Cannot be reward token\");\n\n        if (_tokenAddress == WLAT) {\n            IWLAT(WLAT).withdraw(_tokenAmount);\n            safeTransferLAT(address(msg.sender), _tokenAmount);\n        } else {\n            IPEP20(_tokenAddress).safeTransfer(address(msg.sender), _tokenAmount);\n        }\n\n        emit AdminTokenRecovery(_tokenAddress, _tokenAmount);\n    }\n\n    /*\n     * @notice Stop rewards\n     * @dev Only callable by owner\n     */\n    function stopReward() external onlyOwner {\n        bonusEndBlock = block.number;\n        emit RewardsStop(block.number);\n    }\n\n    /*\n     * @notice Update pool limit per user\n     * @dev Only callable by owner.\n     * @param _hasUserLimit: whether the limit remains forced\n     * @param _poolLimitPerUser: new pool limit per user\n     */\n    function updatePoolLimitPerUser(bool _hasUserLimit, uint256 _poolLimitPerUser) external onlyOwner {\n        require(hasUserLimit, \"Must be set\");\n        if (_hasUserLimit) {\n            require(_poolLimitPerUser > poolLimitPerUser, \"New limit must be higher\");\n            poolLimitPerUser = _poolLimitPerUser;\n        } else {\n            hasUserLimit = _hasUserLimit;\n            poolLimitPerUser = 0;\n        }\n        emit NewPoolLimit(poolLimitPerUser);\n    }\n\n    /*\n     * @notice Update reward per block\n     * @dev Only callable by owner.\n     * @param _rewardPerBlock: the reward per block\n     */\n    function updateRewardPerBlock(uint256 _rewardPerBlock) external onlyOwner {\n        require(block.number < startBlock, \"Pool has started\");\n        rewardPerBlock = _rewardPerBlock;\n        emit NewRewardPerBlock(_rewardPerBlock);\n    }\n\n    /**\n     * @notice It allows the admin to update start and end blocks\n     * @dev This function is only callable by owner.\n     * @param _startBlock: the new start block\n     * @param _bonusEndBlock: the new end block\n     */\n    function updateStartAndEndBlocks(uint256 _startBlock, uint256 _bonusEndBlock) external onlyOwner {\n        require(block.number < startBlock, \"Pool has started\");\n        require(_startBlock < _bonusEndBlock, \"New startBlock must be lower than new endBlock\");\n        require(block.number < _startBlock, \"New startBlock must be higher than current block\");\n\n        startBlock = _startBlock;\n        bonusEndBlock = _bonusEndBlock;\n\n        // Set the lastRewardBlock as the startBlock\n        lastRewardBlock = startBlock;\n\n        emit NewStartAndEndBlocks(_startBlock, _bonusEndBlock);\n    }\n\n    /*\n     * @notice View function to see pending reward on frontend.\n     * @param _user: user address\n     * @return Pending reward for a given user\n     */\n    function pendingReward(address _user) external view returns (uint256) {\n        UserInfo storage user = userInfo[_user];\n        uint256 stakedTokenSupply = stakedToken.balanceOf(address(this));\n        if (block.number > lastRewardBlock && stakedTokenSupply != 0) {\n            uint256 multiplier = _getMultiplier(lastRewardBlock, block.number);\n            uint256 tokenReward = multiplier.mul(rewardPerBlock);\n            uint256 adjustedTokenPerShare =\n                accTokenPerShare.add(tokenReward.mul(PRECISION_FACTOR).div(stakedTokenSupply));\n            return user.amount.mul(adjustedTokenPerShare).div(PRECISION_FACTOR).sub(user.rewardDebt);\n        } else {\n            return user.amount.mul(accTokenPerShare).div(PRECISION_FACTOR).sub(user.rewardDebt);\n        }\n    }\n\n    /*\n     * @notice Update reward variables of the given pool to be up-to-date.\n     */\n    function _updatePool() internal {\n        if (block.number <= lastRewardBlock) {\n            return;\n        }\n\n        uint256 stakedTokenSupply = stakedToken.balanceOf(address(this));\n\n        if (stakedTokenSupply == 0) {\n            lastRewardBlock = block.number;\n            return;\n        }\n\n        uint256 multiplier = _getMultiplier(lastRewardBlock, block.number);\n        uint256 tokenReward = multiplier.mul(rewardPerBlock);\n        accTokenPerShare = accTokenPerShare.add(tokenReward.mul(PRECISION_FACTOR).div(stakedTokenSupply));\n        lastRewardBlock = block.number;\n    }\n\n    /*\n     * @notice Return reward multiplier over the given _from to _to block.\n     * @param _from: block to start\n     * @param _to: block to finish\n     */\n    function _getMultiplier(uint256 _from, uint256 _to) internal view returns (uint256) {\n        if (_to <= bonusEndBlock) {\n            return _to.sub(_from);\n        } else if (_from >= bonusEndBlock) {\n            return 0;\n        } else {\n            return bonusEndBlock.sub(_from);\n        }\n    }\n}\n",
  "sourcePath": "/Users/steven/work/javascript/defi/dipole/dipole-farm/contracts/SmartChefInitializable.sol",
  "compiler": {
    "name": "solc",
    "version": "0.6.12+commit.27d51765.Emscripten.clang"
  },
  "schemaVersion": "3.4.5",
  "updatedAt": "2022-05-17T08:24:48.017Z",
  "devdoc": {
    "kind": "dev",
    "methods": {
      "owner()": {
        "details": "Returns the address of the current owner."
      },
      "recoverWrongTokens(address,uint256)": {
        "details": "This function is only callable by admin.",
        "params": {
          "_tokenAddress": ": the address of the token to withdraw",
          "_tokenAmount": ": the number of tokens to withdraw"
        }
      },
      "renounceOwnership()": {
        "details": "Leaves the contract without owner. It will not be possible to call `onlyOwner` functions anymore. Can only be called by the current owner. NOTE: Renouncing ownership will leave the contract without an owner, thereby removing any functionality that is only available to the owner."
      },
      "transferOwnership(address)": {
        "details": "Transfers ownership of the contract to a new account (`newOwner`). Can only be called by the current owner."
      },
      "updateStartAndEndBlocks(uint256,uint256)": {
        "details": "This function is only callable by owner.",
        "params": {
          "_bonusEndBlock": ": the new end block",
          "_startBlock": ": the new start block"
        }
      }
    },
    "version": 1
  },
  "userdoc": {
    "kind": "user",
    "methods": {
      "recoverWrongTokens(address,uint256)": {
        "notice": "It allows the admin to recover wrong tokens sent to the contract"
      },
      "updateStartAndEndBlocks(uint256,uint256)": {
        "notice": "It allows the admin to update start and end blocks"
      }
    },
    "version": 1
  }
}